{
  "contractName": "GroceryPayment",
  "abi": [
    {
      "inputs": [
        {
          "internalType": "address",
          "name": "_loyaltyContract",
          "type": "address"
        }
      ],
      "stateMutability": "nonpayable",
      "type": "constructor"
    },
    {
      "anonymous": false,
      "inputs": [
        {
          "indexed": true,
          "internalType": "address",
          "name": "loyaltyContract",
          "type": "address"
        }
      ],
      "name": "LoyaltyContractUpdated",
      "type": "event"
    },
    {
      "anonymous": false,
      "inputs": [
        {
          "indexed": true,
          "internalType": "uint256",
          "name": "id",
          "type": "uint256"
        },
        {
          "indexed": false,
          "internalType": "string",
          "name": "name",
          "type": "string"
        },
        {
          "indexed": false,
          "internalType": "uint256",
          "name": "priceWei",
          "type": "uint256"
        }
      ],
      "name": "ProductAdded",
      "type": "event"
    },
    {
      "anonymous": false,
      "inputs": [
        {
          "indexed": true,
          "internalType": "uint256",
          "name": "id",
          "type": "uint256"
        },
        {
          "indexed": true,
          "internalType": "address",
          "name": "buyer",
          "type": "address"
        },
        {
          "indexed": false,
          "internalType": "uint256",
          "name": "priceWei",
          "type": "uint256"
        }
      ],
      "name": "ProductPurchased",
      "type": "event"
    },
    {
      "inputs": [],
      "name": "loyaltyContract",
      "outputs": [
        {
          "internalType": "address",
          "name": "",
          "type": "address"
        }
      ],
      "stateMutability": "view",
      "type": "function",
      "constant": true
    },
    {
      "inputs": [],
      "name": "productCount",
      "outputs": [
        {
          "internalType": "uint256",
          "name": "",
          "type": "uint256"
        }
      ],
      "stateMutability": "view",
      "type": "function",
      "constant": true
    },
    {
      "inputs": [],
      "name": "seller",
      "outputs": [
        {
          "internalType": "address payable",
          "name": "",
          "type": "address"
        }
      ],
      "stateMutability": "view",
      "type": "function",
      "constant": true
    },
    {
      "inputs": [
        {
          "internalType": "address",
          "name": "_loyaltyContract",
          "type": "address"
        }
      ],
      "name": "updateLoyaltyContract",
      "outputs": [],
      "stateMutability": "nonpayable",
      "type": "function"
    },
    {
      "inputs": [
        {
          "internalType": "string",
          "name": "_name",
          "type": "string"
        },
        {
          "internalType": "string",
          "name": "_description",
          "type": "string"
        },
        {
          "internalType": "uint256",
          "name": "_priceWei",
          "type": "uint256"
        }
      ],
      "name": "addProduct",
      "outputs": [],
      "stateMutability": "nonpayable",
      "type": "function"
    },
    {
      "inputs": [
        {
          "internalType": "uint256",
          "name": "_id",
          "type": "uint256"
        }
      ],
      "name": "getProduct",
      "outputs": [
        {
          "internalType": "uint256",
          "name": "id",
          "type": "uint256"
        },
        {
          "internalType": "string",
          "name": "name",
          "type": "string"
        },
        {
          "internalType": "string",
          "name": "description",
          "type": "string"
        },
        {
          "internalType": "uint256",
          "name": "priceWei",
          "type": "uint256"
        },
        {
          "internalType": "bool",
          "name": "active",
          "type": "bool"
        }
      ],
      "stateMutability": "view",
      "type": "function",
      "constant": true
    },
    {
      "inputs": [
        {
          "internalType": "address",
          "name": "_buyer",
          "type": "address"
        },
        {
          "internalType": "uint256",
          "name": "_id",
          "type": "uint256"
        }
      ],
      "name": "hasPurchased",
      "outputs": [
        {
          "internalType": "bool",
          "name": "",
          "type": "bool"
        }
      ],
      "stateMutability": "view",
      "type": "function",
      "constant": true
    },
    {
      "inputs": [
        {
          "internalType": "uint256",
          "name": "_id",
          "type": "uint256"
        }
      ],
      "name": "purchaseProduct",
      "outputs": [],
      "stateMutability": "payable",
      "type": "function",
      "payable": true
    }
  ],
  "bytecode": "0x608060405234801561001057600080fd5b50604051610edb380380610edb83398101604081905261002f916100bc565b6001600160a01b0381166100895760405162461bcd60e51b815260206004820152601860248201527f496e76616c6964206c6f79616c747920636f6e74726163740000000000000000604482015260640160405180910390fd5b60008054336001600160a01b031991821617909155600180549091166001600160a01b03929092169190911790556100ec565b6000602082840312156100ce57600080fd5b81516001600160a01b03811681146100e557600080fd5b9392505050565b610de0806100fb6000396000f3fe60806040526004361061007b5760003560e01c8063a211c16f1161004e578063a211c16f14610122578063b9db15b414610142578063e0f6ef8714610173578063f28ea1c11461019757600080fd5b806308551a531461008057806311923132146100bd5780631ed24e20146100ed57806338e76a031461010d575b600080fd5b34801561008c57600080fd5b506000546100a0906001600160a01b031681565b6040516001600160a01b0390911681526020015b60405180910390f35b3480156100c957600080fd5b506100dd6100d83660046109dd565b6101b7565b60405190151581526020016100b4565b3480156100f957600080fd5b506001546100a0906001600160a01b031681565b61012061011b366004610a07565b6101e5565b005b34801561012e57600080fd5b5061012061013d366004610a20565b6105cb565b34801561014e57600080fd5b5061016261015d366004610a07565b6106b3565b6040516100b4959493929190610a88565b34801561017f57600080fd5b5061018960025481565b6040519081526020016100b4565b3480156101a357600080fd5b506101206101b2366004610b70565b61084e565b6001600160a01b038216600090815260046020908152604080832084845290915290205460ff165b92915050565b6000600360008381526020019081526020016000206040518060a00160405290816000820154815260200160018201805461021f90610bdd565b80601f016020809104026020016040519081016040528092919081815260200182805461024b90610bdd565b80156102985780601f1061026d57610100808354040283529160200191610298565b820191906000526020600020905b81548152906001019060200180831161027b57829003601f168201915b505050505081526020016002820180546102b190610bdd565b80601f01602080910402602001604051908101604052809291908181526020018280546102dd90610bdd565b801561032a5780601f106102ff5761010080835404028352916020019161032a565b820191906000526020600020905b81548152906001019060200180831161030d57829003601f168201915b50505091835250506003820154602082015260049091015460ff16151560409091015280519091506000036103985760405162461bcd60e51b815260206004820152600f60248201526e125b9d985b1a59081c1c9bd91d58dd608a1b60448201526064015b60405180910390fd5b80608001516103dc5760405162461bcd60e51b815260206004820152601060248201526f50726f6475637420696e61637469766560801b604482015260640161038f565b806060015134146104255760405162461bcd60e51b8152602060048201526013602482015272496e636f7272656374204554482076616c756560681b604482015260640161038f565b336000908152600460209081526040808320858452909152808220805460ff19166001179055815490516001600160a01b039091169034908381818185875af1925050503d8060008114610495576040519150601f19603f3d011682016040523d82523d6000602084013e61049a565b606091505b50509050806104dc5760405162461bcd60e51b815260206004820152600e60248201526d14185e5b595b9d0819985a5b195960921b604482015260640161038f565b600066038d7ea4c6800083606001516104f59190610c2d565b905080600003610503575060015b600061051082600a610c4f565b60015460405163c9c33f0360e01b815233600482015260248101859052604481018390529192506001600160a01b03169063c9c33f0390606401600060405180830381600087803b15801561056457600080fd5b505af1158015610578573d6000803e3d6000fd5b50505050336001600160a01b0316857fa530f889d7f1bd9a73028e48944ca013ab2c6624a31e3fa26f923f4bb719abd586606001516040516105bc91815260200190565b60405180910390a35050505050565b6000546001600160a01b031633146106135760405162461bcd60e51b815260206004820152600b60248201526a27b7363c9039b2b63632b960a91b604482015260640161038f565b6001600160a01b0381166106695760405162461bcd60e51b815260206004820152601860248201527f496e76616c6964206c6f79616c747920636f6e74726163740000000000000000604482015260640161038f565b600180546001600160a01b0319166001600160a01b0383169081179091556040517fe69649e81b79894f5f6db08576298c24c1d6d6ae75abf5a41acd5f0079b293d190600090a250565b60006060806000806000600360008881526020019081526020016000206040518060a0016040529081600082015481526020016001820180546106f590610bdd565b80601f016020809104026020016040519081016040528092919081815260200182805461072190610bdd565b801561076e5780601f106107435761010080835404028352916020019161076e565b820191906000526020600020905b81548152906001019060200180831161075157829003601f168201915b5050505050815260200160028201805461078790610bdd565b80601f01602080910402602001604051908101604052809291908181526020018280546107b390610bdd565b80156108005780601f106107d557610100808354040283529160200191610800565b820191906000526020600020905b8154815290600101906020018083116107e357829003601f168201915b5050509183525050600382015460208083019190915260049092015460ff161515604091820152825191830151908301516060840151608090940151929b919a509850919650945092505050565b6000546001600160a01b031633146108965760405162461bcd60e51b815260206004820152600b60248201526a27b7363c9039b2b63632b960a91b604482015260640161038f565b600081116108da5760405162461bcd60e51b815260206004820152601160248201527005072696365206d757374206265203e203607c1b604482015260640161038f565b6001600260008282546108ed9190610c66565b90915550506040805160a0810182526002548082526020808301878152838501879052606084018690526001608085018190526000938452600390925293909120825181559251919291908201906109459082610cc8565b506040820151600282019061095a9082610cc8565b50606082015160038201556080909101516004909101805460ff19169115159190911790556002546040517fcca07c742c5274e8b72111ba69566aa4442450bfc50bd897ea38d0170d1accfc906109b49086908590610d88565b60405180910390a2505050565b80356001600160a01b03811681146109d857600080fd5b919050565b600080604083850312156109f057600080fd5b6109f9836109c1565b946020939093013593505050565b600060208284031215610a1957600080fd5b5035919050565b600060208284031215610a3257600080fd5b610a3b826109c1565b9392505050565b6000815180845260005b81811015610a6857602081850181015186830182015201610a4c565b506000602082860101526020601f19601f83011685010191505092915050565b85815260a060208201526000610aa160a0830187610a42565b8281036040840152610ab38187610a42565b606084019590955250509015156080909101529392505050565b634e487b7160e01b600052604160045260246000fd5b600082601f830112610af457600080fd5b813567ffffffffffffffff80821115610b0f57610b0f610acd565b604051601f8301601f19908116603f01168101908282118183101715610b3757610b37610acd565b81604052838152866020858801011115610b5057600080fd5b836020870160208301376000602085830101528094505050505092915050565b600080600060608486031215610b8557600080fd5b833567ffffffffffffffff80821115610b9d57600080fd5b610ba987838801610ae3565b94506020860135915080821115610bbf57600080fd5b50610bcc86828701610ae3565b925050604084013590509250925092565b600181811c90821680610bf157607f821691505b602082108103610c1157634e487b7160e01b600052602260045260246000fd5b50919050565b634e487b7160e01b600052601160045260246000fd5b600082610c4a57634e487b7160e01b600052601260045260246000fd5b500490565b80820281158282048414176101df576101df610c17565b808201808211156101df576101df610c17565b601f821115610cc357600081815260208120601f850160051c81016020861015610ca05750805b601f850160051c820191505b81811015610cbf57828155600101610cac565b5050505b505050565b815167ffffffffffffffff811115610ce257610ce2610acd565b610cf681610cf08454610bdd565b84610c79565b602080601f831160018114610d2b5760008415610d135750858301515b600019600386901b1c1916600185901b178555610cbf565b600085815260208120601f198616915b82811015610d5a57888601518255948401946001909101908401610d3b565b5085821015610d785787850151600019600388901b60f8161c191681555b5050505050600190811b01905550565b604081526000610d9b6040830185610a42565b9050826020830152939250505056fea264697066735822122003add24f85269dfa4e488202d56445e0e12f2e01002699851a058a2355551e0e64736f6c63430008130033",
  "immutableReferences": {},
  "source": "// SPDX-License-Identifier: MIT\npragma solidity ^0.8.19;\n\ninterface ILoyaltyRewards {\n    function recordPurchase(address buyer, uint256 points, uint256 xp) external;\n}\n\ncontract GroceryPayment {\n    struct Product {\n        uint256 id;\n        string name;\n        string description;\n        uint256 priceWei;\n        bool active;\n    }\n\n    address payable public seller;\n    address public loyaltyContract;\n    uint256 public productCount;\n\n    mapping(uint256 => Product) private products;\n    mapping(address => mapping(uint256 => bool)) private purchases;\n\n    event ProductAdded(uint256 indexed id, string name, uint256 priceWei);\n    event ProductPurchased(uint256 indexed id, address indexed buyer, uint256 priceWei);\n    event LoyaltyContractUpdated(address indexed loyaltyContract);\n\n    modifier onlySeller() {\n        require(msg.sender == seller, \"Only seller\");\n        _;\n    }\n\n    constructor(address _loyaltyContract) {\n        require(_loyaltyContract != address(0), \"Invalid loyalty contract\");\n        seller = payable(msg.sender);\n        loyaltyContract = _loyaltyContract;\n    }\n\n    function updateLoyaltyContract(address _loyaltyContract) external onlySeller {\n        require(_loyaltyContract != address(0), \"Invalid loyalty contract\");\n        loyaltyContract = _loyaltyContract;\n        emit LoyaltyContractUpdated(_loyaltyContract);\n    }\n\n    function addProduct(string memory _name, string memory _description, uint256 _priceWei) external onlySeller {\n        require(_priceWei > 0, \"Price must be > 0\");\n        productCount += 1;\n        products[productCount] = Product({\n            id: productCount,\n            name: _name,\n            description: _description,\n            priceWei: _priceWei,\n            active: true\n        });\n        emit ProductAdded(productCount, _name, _priceWei);\n    }\n\n    function getProduct(uint256 _id)\n        external\n        view\n        returns (uint256 id, string memory name, string memory description, uint256 priceWei, bool active)\n    {\n        Product memory product = products[_id];\n        return (product.id, product.name, product.description, product.priceWei, product.active);\n    }\n\n    function hasPurchased(address _buyer, uint256 _id) external view returns (bool) {\n        return purchases[_buyer][_id];\n    }\n\n    function purchaseProduct(uint256 _id) external payable {\n        Product memory product = products[_id];\n        require(product.id != 0, \"Invalid product\");\n        require(product.active, \"Product inactive\");\n        require(msg.value == product.priceWei, \"Incorrect ETH value\");\n\n        purchases[msg.sender][_id] = true;\n        (bool sent, ) = seller.call{value: msg.value}(\"\");\n        require(sent, \"Payment failed\");\n\n        uint256 points = product.priceWei / 1e15; // 0.001 ETH = 1 point\n        if (points == 0) {\n            points = 1;\n        }\n        uint256 xp = points * 10;\n        ILoyaltyRewards(loyaltyContract).recordPurchase(msg.sender, points, xp);\n\n        emit ProductPurchased(_id, msg.sender, product.priceWei);\n    }\n}\r\n",
  "sourcePath": "C:\\Users\\24026513\\OneDrive - Republic Polytechnic\\Y2\\Sem 2\\C373\\C373 FA\\DAppCommerce\\contracts\\GroceryPayment.sol",
  "compiler": {
    "name": "solc",
    "version": "0.8.19+commit.7dd6d404.Emscripten.clang"
  },
  "schemaVersion": "3.4.16",
  "updatedAt": "2026-01-11T11:15:22.394Z",
  "networkType": "ethereum",
  "devdoc": {
    "kind": "dev",
    "methods": {},
    "version": 1
  },
  "userdoc": {
    "kind": "user",
    "methods": {},
    "version": 1
  }
}