{
  "contractName": "GymMembershipPayment",
  "abi": [
    {
      "inputs": [
        {
          "internalType": "address",
          "name": "_loyaltyContract",
          "type": "address"
        }
      ],
      "stateMutability": "nonpayable",
      "type": "constructor"
    },
    {
      "anonymous": false,
      "inputs": [
        {
          "indexed": true,
          "internalType": "address",
          "name": "loyaltyContract",
          "type": "address"
        }
      ],
      "name": "LoyaltyContractUpdated",
      "type": "event"
    },
    {
      "anonymous": false,
      "inputs": [
        {
          "indexed": true,
          "internalType": "address",
          "name": "buyer",
          "type": "address"
        },
        {
          "indexed": true,
          "internalType": "uint256",
          "name": "id",
          "type": "uint256"
        }
      ],
      "name": "MembershipCanceled",
      "type": "event"
    },
    {
      "anonymous": false,
      "inputs": [
        {
          "indexed": true,
          "internalType": "uint256",
          "name": "id",
          "type": "uint256"
        },
        {
          "indexed": false,
          "internalType": "string",
          "name": "name",
          "type": "string"
        },
        {
          "indexed": false,
          "internalType": "uint256",
          "name": "priceWei",
          "type": "uint256"
        }
      ],
      "name": "ProductAdded",
      "type": "event"
    },
    {
      "anonymous": false,
      "inputs": [
        {
          "indexed": true,
          "internalType": "uint256",
          "name": "id",
          "type": "uint256"
        },
        {
          "indexed": true,
          "internalType": "address",
          "name": "buyer",
          "type": "address"
        },
        {
          "indexed": false,
          "internalType": "uint256",
          "name": "priceWei",
          "type": "uint256"
        }
      ],
      "name": "ProductPurchased",
      "type": "event"
    },
    {
      "inputs": [],
      "name": "loyaltyContract",
      "outputs": [
        {
          "internalType": "address",
          "name": "",
          "type": "address"
        }
      ],
      "stateMutability": "view",
      "type": "function",
      "constant": true
    },
    {
      "inputs": [],
      "name": "productCount",
      "outputs": [
        {
          "internalType": "uint256",
          "name": "",
          "type": "uint256"
        }
      ],
      "stateMutability": "view",
      "type": "function",
      "constant": true
    },
    {
      "inputs": [],
      "name": "seller",
      "outputs": [
        {
          "internalType": "address payable",
          "name": "",
          "type": "address"
        }
      ],
      "stateMutability": "view",
      "type": "function",
      "constant": true
    },
    {
      "inputs": [
        {
          "internalType": "address",
          "name": "_loyaltyContract",
          "type": "address"
        }
      ],
      "name": "updateLoyaltyContract",
      "outputs": [],
      "stateMutability": "nonpayable",
      "type": "function"
    },
    {
      "inputs": [
        {
          "internalType": "string",
          "name": "_name",
          "type": "string"
        },
        {
          "internalType": "string",
          "name": "_description",
          "type": "string"
        },
        {
          "internalType": "uint256",
          "name": "_priceWei",
          "type": "uint256"
        }
      ],
      "name": "addProduct",
      "outputs": [],
      "stateMutability": "nonpayable",
      "type": "function"
    },
    {
      "inputs": [
        {
          "internalType": "uint256",
          "name": "_id",
          "type": "uint256"
        }
      ],
      "name": "getProduct",
      "outputs": [
        {
          "internalType": "uint256",
          "name": "id",
          "type": "uint256"
        },
        {
          "internalType": "string",
          "name": "name",
          "type": "string"
        },
        {
          "internalType": "string",
          "name": "description",
          "type": "string"
        },
        {
          "internalType": "uint256",
          "name": "priceWei",
          "type": "uint256"
        },
        {
          "internalType": "bool",
          "name": "active",
          "type": "bool"
        }
      ],
      "stateMutability": "view",
      "type": "function",
      "constant": true
    },
    {
      "inputs": [
        {
          "internalType": "address",
          "name": "_buyer",
          "type": "address"
        },
        {
          "internalType": "uint256",
          "name": "_id",
          "type": "uint256"
        }
      ],
      "name": "hasPurchased",
      "outputs": [
        {
          "internalType": "bool",
          "name": "",
          "type": "bool"
        }
      ],
      "stateMutability": "view",
      "type": "function",
      "constant": true
    },
    {
      "inputs": [
        {
          "internalType": "address",
          "name": "_buyer",
          "type": "address"
        }
      ],
      "name": "activeMembershipOf",
      "outputs": [
        {
          "internalType": "uint256",
          "name": "",
          "type": "uint256"
        }
      ],
      "stateMutability": "view",
      "type": "function",
      "constant": true
    },
    {
      "inputs": [
        {
          "internalType": "uint256",
          "name": "_id",
          "type": "uint256"
        }
      ],
      "name": "purchaseProduct",
      "outputs": [],
      "stateMutability": "payable",
      "type": "function",
      "payable": true
    },
    {
      "inputs": [],
      "name": "cancelMembership",
      "outputs": [],
      "stateMutability": "nonpayable",
      "type": "function"
    }
  ],
  "bytecode": "0x608060405234801561001057600080fd5b506040516110a03803806110a083398101604081905261002f916100bc565b6001600160a01b0381166100895760405162461bcd60e51b815260206004820152601860248201527f496e76616c6964206c6f79616c747920636f6e74726163740000000000000000604482015260640160405180910390fd5b60008054336001600160a01b031991821617909155600180549091166001600160a01b03929092169190911790556100ec565b6000602082840312156100ce57600080fd5b81516001600160a01b03811681146100e557600080fd5b9392505050565b610fa5806100fb6000396000f3fe6080604052600436106100915760003560e01c806349ac400f1161005957806349ac400f1461014d578063a211c16f14610191578063b9db15b4146101b1578063e0f6ef87146101e2578063f28ea1c1146101f857600080fd5b8063082e847a1461009657806308551a53146100ad57806311923132146100ea5780631ed24e201461011a57806338e76a031461013a575b600080fd5b3480156100a257600080fd5b506100ab610218565b005b3480156100b957600080fd5b506000546100cd906001600160a01b031681565b6040516001600160a01b0390911681526020015b60405180910390f35b3480156100f657600080fd5b5061010a610105366004610ba2565b6102ce565b60405190151581526020016100e1565b34801561012657600080fd5b506001546100cd906001600160a01b031681565b6100ab610148366004610bcc565b6102fc565b34801561015957600080fd5b50610183610168366004610be5565b6001600160a01b031660009081526005602052604090205490565b6040519081526020016100e1565b34801561019d57600080fd5b506100ab6101ac366004610be5565b610790565b3480156101bd57600080fd5b506101d16101cc366004610bcc565b610878565b6040516100e1959493929190610c4d565b3480156101ee57600080fd5b5061018360025481565b34801561020457600080fd5b506100ab610213366004610d35565b610a13565b33600090815260056020526040812054908190036102745760405162461bcd60e51b815260206004820152601460248201527304e6f20616374697665206d656d626572736869760641b60448201526064015b60405180910390fd5b3360008181526004602090815260408083208584528252808320805460ff191690558383526005909152808220829055518392917f4e39d200d76e282d29d16765b5e8fa4e96f6b58238461e78fbd5aed84ac6b94e91a350565b6001600160a01b038216600090815260046020908152604080832084845290915290205460ff165b92915050565b6000600360008381526020019081526020016000206040518060a00160405290816000820154815260200160018201805461033690610da2565b80601f016020809104026020016040519081016040528092919081815260200182805461036290610da2565b80156103af5780601f10610384576101008083540402835291602001916103af565b820191906000526020600020905b81548152906001019060200180831161039257829003601f168201915b505050505081526020016002820180546103c890610da2565b80601f01602080910402602001604051908101604052809291908181526020018280546103f490610da2565b80156104415780601f1061041657610100808354040283529160200191610441565b820191906000526020600020905b81548152906001019060200180831161042457829003601f168201915b50505091835250506003820154602082015260049091015460ff16151560409091015280519091506000036104aa5760405162461bcd60e51b815260206004820152600f60248201526e125b9d985b1a59081c1c9bd91d58dd608a1b604482015260640161026b565b80608001516104ee5760405162461bcd60e51b815260206004820152601060248201526f50726f6475637420696e61637469766560801b604482015260640161026b565b806060015134146105375760405162461bcd60e51b8152602060048201526013602482015272496e636f7272656374204554482076616c756560681b604482015260640161026b565b336000908152600560205260409020548290036105965760405162461bcd60e51b815260206004820152601960248201527f4d656d6265727368697020616c72656164792061637469766500000000000000604482015260640161026b565b3360009081526005602052604090205480158015906105b55750828114155b156105dd573360009081526004602090815260408083208484529091529020805460ff191690555b3360008181526004602090815260408083208784528252808320805460ff19166001179055928252600590528181208590558054915190916001600160a01b03169034908381818185875af1925050503d8060008114610659576040519150601f19603f3d011682016040523d82523d6000602084013e61065e565b606091505b50509050806106a05760405162461bcd60e51b815260206004820152600e60248201526d14185e5b595b9d0819985a5b195960921b604482015260640161026b565b600066038d7ea4c6800084606001516106b99190610df2565b9050806000036106c7575060015b60006106d482600a610e14565b60015460405163c9c33f0360e01b815233600482015260248101859052604481018390529192506001600160a01b03169063c9c33f0390606401600060405180830381600087803b15801561072857600080fd5b505af115801561073c573d6000803e3d6000fd5b50505050336001600160a01b0316867fa530f889d7f1bd9a73028e48944ca013ab2c6624a31e3fa26f923f4bb719abd5876060015160405161078091815260200190565b60405180910390a3505050505050565b6000546001600160a01b031633146107d85760405162461bcd60e51b815260206004820152600b60248201526a27b7363c9039b2b63632b960a91b604482015260640161026b565b6001600160a01b03811661082e5760405162461bcd60e51b815260206004820152601860248201527f496e76616c6964206c6f79616c747920636f6e74726163740000000000000000604482015260640161026b565b600180546001600160a01b0319166001600160a01b0383169081179091556040517fe69649e81b79894f5f6db08576298c24c1d6d6ae75abf5a41acd5f0079b293d190600090a250565b60006060806000806000600360008881526020019081526020016000206040518060a0016040529081600082015481526020016001820180546108ba90610da2565b80601f01602080910402602001604051908101604052809291908181526020018280546108e690610da2565b80156109335780601f1061090857610100808354040283529160200191610933565b820191906000526020600020905b81548152906001019060200180831161091657829003601f168201915b5050505050815260200160028201805461094c90610da2565b80601f016020809104026020016040519081016040528092919081815260200182805461097890610da2565b80156109c55780601f1061099a576101008083540402835291602001916109c5565b820191906000526020600020905b8154815290600101906020018083116109a857829003601f168201915b5050509183525050600382015460208083019190915260049092015460ff161515604091820152825191830151908301516060840151608090940151929b919a509850919650945092505050565b6000546001600160a01b03163314610a5b5760405162461bcd60e51b815260206004820152600b60248201526a27b7363c9039b2b63632b960a91b604482015260640161026b565b60008111610a9f5760405162461bcd60e51b815260206004820152601160248201527005072696365206d757374206265203e203607c1b604482015260640161026b565b600160026000828254610ab29190610e2b565b90915550506040805160a081018252600254808252602080830187815283850187905260608401869052600160808501819052600093845260039092529390912082518155925191929190820190610b0a9082610e8d565b5060408201516002820190610b1f9082610e8d565b50606082015160038201556080909101516004909101805460ff19169115159190911790556002546040517fcca07c742c5274e8b72111ba69566aa4442450bfc50bd897ea38d0170d1accfc90610b799086908590610f4d565b60405180910390a2505050565b80356001600160a01b0381168114610b9d57600080fd5b919050565b60008060408385031215610bb557600080fd5b610bbe83610b86565b946020939093013593505050565b600060208284031215610bde57600080fd5b5035919050565b600060208284031215610bf757600080fd5b610c0082610b86565b9392505050565b6000815180845260005b81811015610c2d57602081850181015186830182015201610c11565b506000602082860101526020601f19601f83011685010191505092915050565b85815260a060208201526000610c6660a0830187610c07565b8281036040840152610c788187610c07565b606084019590955250509015156080909101529392505050565b634e487b7160e01b600052604160045260246000fd5b600082601f830112610cb957600080fd5b813567ffffffffffffffff80821115610cd457610cd4610c92565b604051601f8301601f19908116603f01168101908282118183101715610cfc57610cfc610c92565b81604052838152866020858801011115610d1557600080fd5b836020870160208301376000602085830101528094505050505092915050565b600080600060608486031215610d4a57600080fd5b833567ffffffffffffffff80821115610d6257600080fd5b610d6e87838801610ca8565b94506020860135915080821115610d8457600080fd5b50610d9186828701610ca8565b925050604084013590509250925092565b600181811c90821680610db657607f821691505b602082108103610dd657634e487b7160e01b600052602260045260246000fd5b50919050565b634e487b7160e01b600052601160045260246000fd5b600082610e0f57634e487b7160e01b600052601260045260246000fd5b500490565b80820281158282048414176102f6576102f6610ddc565b808201808211156102f6576102f6610ddc565b601f821115610e8857600081815260208120601f850160051c81016020861015610e655750805b601f850160051c820191505b81811015610e8457828155600101610e71565b5050505b505050565b815167ffffffffffffffff811115610ea757610ea7610c92565b610ebb81610eb58454610da2565b84610e3e565b602080601f831160018114610ef05760008415610ed85750858301515b600019600386901b1c1916600185901b178555610e84565b600085815260208120601f198616915b82811015610f1f57888601518255948401946001909101908401610f00565b5085821015610f3d5787850151600019600388901b60f8161c191681555b5050505050600190811b01905550565b604081526000610f606040830185610c07565b9050826020830152939250505056fea26469706673582212206bc822eba107ee60edeee367f6387a513125ab784fb97213f61203a02ffe7ee164736f6c63430008130033",
  "immutableReferences": {},
  "source": "// SPDX-License-Identifier: MIT\r\npragma solidity ^0.8.19;\r\n\r\ninterface ILoyaltyRewards {\r\n    function recordPurchase(address buyer, uint256 points, uint256 xp) external;\r\n}\r\n\r\ncontract GymMembershipPayment {\r\n    struct Product {\r\n        uint256 id;\r\n        string name;\r\n        string description;\r\n        uint256 priceWei;\r\n        bool active;\r\n    }\r\n\r\n    address payable public seller;\r\n    address public loyaltyContract;\r\n    uint256 public productCount;\r\n\r\n    mapping(uint256 => Product) private products;\n    mapping(address => mapping(uint256 => bool)) private purchases;\n    mapping(address => uint256) private activeMembership;\n\r\n    event ProductAdded(uint256 indexed id, string name, uint256 priceWei);\n    event ProductPurchased(uint256 indexed id, address indexed buyer, uint256 priceWei);\n    event MembershipCanceled(address indexed buyer, uint256 indexed id);\n    event LoyaltyContractUpdated(address indexed loyaltyContract);\n\r\n    modifier onlySeller() {\r\n        require(msg.sender == seller, \"Only seller\");\r\n        _;\r\n    }\r\n\r\n    constructor(address _loyaltyContract) {\r\n        require(_loyaltyContract != address(0), \"Invalid loyalty contract\");\r\n        seller = payable(msg.sender);\r\n        loyaltyContract = _loyaltyContract;\r\n    }\r\n\r\n    function updateLoyaltyContract(address _loyaltyContract) external onlySeller {\r\n        require(_loyaltyContract != address(0), \"Invalid loyalty contract\");\r\n        loyaltyContract = _loyaltyContract;\r\n        emit LoyaltyContractUpdated(_loyaltyContract);\r\n    }\r\n\r\n    function addProduct(string memory _name, string memory _description, uint256 _priceWei) external onlySeller {\r\n        require(_priceWei > 0, \"Price must be > 0\");\r\n        productCount += 1;\r\n        products[productCount] = Product({\r\n            id: productCount,\r\n            name: _name,\r\n            description: _description,\r\n            priceWei: _priceWei,\r\n            active: true\r\n        });\r\n        emit ProductAdded(productCount, _name, _priceWei);\r\n    }\r\n\r\n    function getProduct(uint256 _id)\r\n        external\r\n        view\r\n        returns (uint256 id, string memory name, string memory description, uint256 priceWei, bool active)\r\n    {\r\n        Product memory product = products[_id];\r\n        return (product.id, product.name, product.description, product.priceWei, product.active);\r\n    }\r\n\r\n    function hasPurchased(address _buyer, uint256 _id) external view returns (bool) {\n        return purchases[_buyer][_id];\n    }\n\n    function activeMembershipOf(address _buyer) external view returns (uint256) {\n        return activeMembership[_buyer];\n    }\n\n    function purchaseProduct(uint256 _id) external payable {\n        Product memory product = products[_id];\n        require(product.id != 0, \"Invalid product\");\n        require(product.active, \"Product inactive\");\n        require(msg.value == product.priceWei, \"Incorrect ETH value\");\n        require(activeMembership[msg.sender] != _id, \"Membership already active\");\n\n        uint256 previous = activeMembership[msg.sender];\n        if (previous != 0 && previous != _id) {\n            purchases[msg.sender][previous] = false;\n        }\n\n        purchases[msg.sender][_id] = true;\n        activeMembership[msg.sender] = _id;\n        (bool sent, ) = seller.call{value: msg.value}(\"\");\n        require(sent, \"Payment failed\");\n\r\n        uint256 points = product.priceWei / 1e15; // 0.001 ETH = 1 point\r\n        if (points == 0) {\r\n            points = 1;\r\n        }\r\n        uint256 xp = points * 10;\r\n        ILoyaltyRewards(loyaltyContract).recordPurchase(msg.sender, points, xp);\r\n\n        emit ProductPurchased(_id, msg.sender, product.priceWei);\n    }\n\n    function cancelMembership() external {\n        uint256 current = activeMembership[msg.sender];\n        require(current != 0, \"No active membership\");\n        purchases[msg.sender][current] = false;\n        activeMembership[msg.sender] = 0;\n        emit MembershipCanceled(msg.sender, current);\n    }\n}\n",
  "sourcePath": "C:\\Users\\24026513\\OneDrive - Republic Polytechnic\\Y2\\Sem 2\\C373\\FA 373 final code\\C373-FA-2.0\\DAppCommerce\\contracts\\GymMembershipPayment.sol",
  "compiler": {
    "name": "solc",
    "version": "0.8.19+commit.7dd6d404.Emscripten.clang"
  },
  "schemaVersion": "3.4.16",
  "updatedAt": "2026-01-28T09:59:37.928Z",
  "networkType": "ethereum",
  "devdoc": {
    "kind": "dev",
    "methods": {},
    "version": 1
  },
  "userdoc": {
    "kind": "user",
    "methods": {},
    "version": 1
  }
}