{
  "contractName": "GymMembershipPayment",
  "abi": [
    {
      "inputs": [
        {
          "internalType": "address",
          "name": "_loyaltyContract",
          "type": "address"
        }
      ],
      "stateMutability": "nonpayable",
      "type": "constructor"
    },
    {
      "anonymous": false,
      "inputs": [
        {
          "indexed": true,
          "internalType": "address",
          "name": "loyaltyContract",
          "type": "address"
        }
      ],
      "name": "LoyaltyContractUpdated",
      "type": "event"
    },
    {
      "anonymous": false,
      "inputs": [
        {
          "indexed": true,
          "internalType": "address",
          "name": "buyer",
          "type": "address"
        },
        {
          "indexed": true,
          "internalType": "uint256",
          "name": "id",
          "type": "uint256"
        }
      ],
      "name": "MembershipCanceled",
      "type": "event"
    },
    {
      "anonymous": false,
      "inputs": [
        {
          "indexed": true,
          "internalType": "uint256",
          "name": "id",
          "type": "uint256"
        },
        {
          "indexed": false,
          "internalType": "string",
          "name": "name",
          "type": "string"
        },
        {
          "indexed": false,
          "internalType": "uint256",
          "name": "priceWei",
          "type": "uint256"
        }
      ],
      "name": "ProductAdded",
      "type": "event"
    },
    {
      "anonymous": false,
      "inputs": [
        {
          "indexed": true,
          "internalType": "uint256",
          "name": "id",
          "type": "uint256"
        },
        {
          "indexed": true,
          "internalType": "address",
          "name": "buyer",
          "type": "address"
        },
        {
          "indexed": false,
          "internalType": "uint256",
          "name": "priceWei",
          "type": "uint256"
        }
      ],
      "name": "ProductPurchased",
      "type": "event"
    },
    {
      "inputs": [],
      "name": "loyaltyContract",
      "outputs": [
        {
          "internalType": "address",
          "name": "",
          "type": "address"
        }
      ],
      "stateMutability": "view",
      "type": "function",
      "constant": true
    },
    {
      "inputs": [],
      "name": "productCount",
      "outputs": [
        {
          "internalType": "uint256",
          "name": "",
          "type": "uint256"
        }
      ],
      "stateMutability": "view",
      "type": "function",
      "constant": true
    },
    {
      "inputs": [],
      "name": "seller",
      "outputs": [
        {
          "internalType": "address payable",
          "name": "",
          "type": "address"
        }
      ],
      "stateMutability": "view",
      "type": "function",
      "constant": true
    },
    {
      "inputs": [
        {
          "internalType": "address",
          "name": "_loyaltyContract",
          "type": "address"
        }
      ],
      "name": "updateLoyaltyContract",
      "outputs": [],
      "stateMutability": "nonpayable",
      "type": "function"
    },
    {
      "inputs": [
        {
          "internalType": "string",
          "name": "_name",
          "type": "string"
        },
        {
          "internalType": "string",
          "name": "_description",
          "type": "string"
        },
        {
          "internalType": "uint256",
          "name": "_priceWei",
          "type": "uint256"
        }
      ],
      "name": "addProduct",
      "outputs": [],
      "stateMutability": "nonpayable",
      "type": "function"
    },
    {
      "inputs": [
        {
          "internalType": "uint256",
          "name": "_id",
          "type": "uint256"
        }
      ],
      "name": "getProduct",
      "outputs": [
        {
          "internalType": "uint256",
          "name": "id",
          "type": "uint256"
        },
        {
          "internalType": "string",
          "name": "name",
          "type": "string"
        },
        {
          "internalType": "string",
          "name": "description",
          "type": "string"
        },
        {
          "internalType": "uint256",
          "name": "priceWei",
          "type": "uint256"
        },
        {
          "internalType": "bool",
          "name": "active",
          "type": "bool"
        }
      ],
      "stateMutability": "view",
      "type": "function",
      "constant": true
    },
    {
      "inputs": [
        {
          "internalType": "address",
          "name": "_buyer",
          "type": "address"
        },
        {
          "internalType": "uint256",
          "name": "_id",
          "type": "uint256"
        }
      ],
      "name": "hasPurchased",
      "outputs": [
        {
          "internalType": "bool",
          "name": "",
          "type": "bool"
        }
      ],
      "stateMutability": "view",
      "type": "function",
      "constant": true
    },
    {
      "inputs": [
        {
          "internalType": "address",
          "name": "_buyer",
          "type": "address"
        }
      ],
      "name": "activeMembershipOf",
      "outputs": [
        {
          "internalType": "uint256",
          "name": "",
          "type": "uint256"
        }
      ],
      "stateMutability": "view",
      "type": "function",
      "constant": true
    },
    {
      "inputs": [
        {
          "internalType": "uint256",
          "name": "_id",
          "type": "uint256"
        }
      ],
      "name": "purchaseProduct",
      "outputs": [],
      "stateMutability": "payable",
      "type": "function",
      "payable": true
    },
    {
      "inputs": [],
      "name": "cancelMembership",
      "outputs": [],
      "stateMutability": "nonpayable",
      "type": "function"
    }
  ],
  "bytecode": "0x608060405234801561001057600080fd5b506040516111fd3803806111fd83398101604081905261002f916100bc565b6001600160a01b0381166100895760405162461bcd60e51b815260206004820152601860248201527f496e76616c6964206c6f79616c747920636f6e74726163740000000000000000604482015260640160405180910390fd5b60008054336001600160a01b031991821617909155600180549091166001600160a01b03929092169190911790556100ec565b6000602082840312156100ce57600080fd5b81516001600160a01b03811681146100e557600080fd5b9392505050565b611102806100fb6000396000f3fe6080604052600436106100915760003560e01c806349ac400f1161005957806349ac400f1461014d578063a211c16f14610191578063b9db15b4146101b1578063e0f6ef87146101e2578063f28ea1c1146101f857600080fd5b8063082e847a1461009657806308551a53146100ad57806311923132146100ea5780631ed24e201461011a57806338e76a031461013a575b600080fd5b3480156100a257600080fd5b506100ab610218565b005b3480156100b957600080fd5b506000546100cd906001600160a01b031681565b6040516001600160a01b0390911681526020015b60405180910390f35b3480156100f657600080fd5b5061010a610105366004610cd3565b6102ce565b60405190151581526020016100e1565b34801561012657600080fd5b506001546100cd906001600160a01b031681565b6100ab610148366004610cfd565b6102fc565b34801561015957600080fd5b50610183610168366004610d16565b6001600160a01b031660009081526005602052604090205490565b6040519081526020016100e1565b34801561019d57600080fd5b506100ab6101ac366004610d16565b6108c1565b3480156101bd57600080fd5b506101d16101cc366004610cfd565b6109a9565b6040516100e1959493929190610d7e565b3480156101ee57600080fd5b5061018360025481565b34801561020457600080fd5b506100ab610213366004610e66565b610b44565b33600090815260056020526040812054908190036102745760405162461bcd60e51b815260206004820152601460248201527304e6f20616374697665206d656d626572736869760641b60448201526064015b60405180910390fd5b3360008181526004602090815260408083208584528252808320805460ff191690558383526005909152808220829055518392917f4e39d200d76e282d29d16765b5e8fa4e96f6b58238461e78fbd5aed84ac6b94e91a350565b6001600160a01b038216600090815260046020908152604080832084845290915290205460ff165b92915050565b6000600360008381526020019081526020016000206040518060a00160405290816000820154815260200160018201805461033690610ed3565b80601f016020809104026020016040519081016040528092919081815260200182805461036290610ed3565b80156103af5780601f10610384576101008083540402835291602001916103af565b820191906000526020600020905b81548152906001019060200180831161039257829003601f168201915b505050505081526020016002820180546103c890610ed3565b80601f01602080910402602001604051908101604052809291908181526020018280546103f490610ed3565b80156104415780601f1061041657610100808354040283529160200191610441565b820191906000526020600020905b81548152906001019060200180831161042457829003601f168201915b50505091835250506003820154602082015260049091015460ff16151560409091015280519091506000036104aa5760405162461bcd60e51b815260206004820152600f60248201526e125b9d985b1a59081c1c9bd91d58dd608a1b604482015260640161026b565b80608001516104ee5760405162461bcd60e51b815260206004820152601060248201526f50726f6475637420696e61637469766560801b604482015260640161026b565b6001546000906001600160a01b03161561057157600154604051637f4e615f60e11b81523360048201526001600160a01b039091169063fe9cc2be90602401602060405180830381865afa15801561054a573d6000803e3d6000fd5b505050506040513d601f19601f8201168201806040525081019061056e9190610f0d565b90505b606082015181156105ab5761271082846060015161058f9190610f3c565b6105999190610f53565b83606001516105a89190610f75565b90505b8034146105f05760405162461bcd60e51b8152602060048201526013602482015272496e636f7272656374204554482076616c756560681b604482015260640161026b565b3360009081526005602052604090205484900361064f5760405162461bcd60e51b815260206004820152601960248201527f4d656d6265727368697020616c72656164792061637469766500000000000000604482015260640161026b565b33600090815260056020526040902054801580159061066e5750848114155b15610696573360009081526004602090815260408083208484529091529020805460ff191690555b3360008181526004602090815260408083208984528252808320805460ff19166001179055928252600590528181208790558054915190916001600160a01b03169034908381818185875af1925050503d8060008114610712576040519150601f19603f3d011682016040523d82523d6000602084013e610717565b606091505b50509050806107595760405162461bcd60e51b815260206004820152600e60248201526d14185e5b595b9d0819985a5b195960921b604482015260640161026b565b83156107cf5760015460405163be38623960e01b81523360048201526001600160a01b039091169063be386239906024016020604051808303816000875af11580156107a9573d6000803e3d6000fd5b505050506040513d601f19601f820116820180604052508101906107cd9190610f0d565b505b60006611c37937e0800086606001516107e89190610f53565b9050806000036107f6575060015b600061080382600a610f3c565b60015460405163c9c33f0360e01b815233600482015260248101859052604481018390529192506001600160a01b03169063c9c33f0390606401600060405180830381600087803b15801561085757600080fd5b505af115801561086b573d6000803e3d6000fd5b50505050336001600160a01b0316887fa530f889d7f1bd9a73028e48944ca013ab2c6624a31e3fa26f923f4bb719abd589606001516040516108af91815260200190565b60405180910390a35050505050505050565b6000546001600160a01b031633146109095760405162461bcd60e51b815260206004820152600b60248201526a27b7363c9039b2b63632b960a91b604482015260640161026b565b6001600160a01b03811661095f5760405162461bcd60e51b815260206004820152601860248201527f496e76616c6964206c6f79616c747920636f6e74726163740000000000000000604482015260640161026b565b600180546001600160a01b0319166001600160a01b0383169081179091556040517fe69649e81b79894f5f6db08576298c24c1d6d6ae75abf5a41acd5f0079b293d190600090a250565b60006060806000806000600360008881526020019081526020016000206040518060a0016040529081600082015481526020016001820180546109eb90610ed3565b80601f0160208091040260200160405190810160405280929190818152602001828054610a1790610ed3565b8015610a645780601f10610a3957610100808354040283529160200191610a64565b820191906000526020600020905b815481529060010190602001808311610a4757829003601f168201915b50505050508152602001600282018054610a7d90610ed3565b80601f0160208091040260200160405190810160405280929190818152602001828054610aa990610ed3565b8015610af65780601f10610acb57610100808354040283529160200191610af6565b820191906000526020600020905b815481529060010190602001808311610ad957829003601f168201915b5050509183525050600382015460208083019190915260049092015460ff161515604091820152825191830151908301516060840151608090940151929b919a509850919650945092505050565b6000546001600160a01b03163314610b8c5760405162461bcd60e51b815260206004820152600b60248201526a27b7363c9039b2b63632b960a91b604482015260640161026b565b60008111610bd05760405162461bcd60e51b815260206004820152601160248201527005072696365206d757374206265203e203607c1b604482015260640161026b565b600160026000828254610be39190610f88565b90915550506040805160a081018252600254808252602080830187815283850187905260608401869052600160808501819052600093845260039092529390912082518155925191929190820190610c3b9082610fea565b5060408201516002820190610c509082610fea565b50606082015160038201556080909101516004909101805460ff19169115159190911790556002546040517fcca07c742c5274e8b72111ba69566aa4442450bfc50bd897ea38d0170d1accfc90610caa90869085906110aa565b60405180910390a2505050565b80356001600160a01b0381168114610cce57600080fd5b919050565b60008060408385031215610ce657600080fd5b610cef83610cb7565b946020939093013593505050565b600060208284031215610d0f57600080fd5b5035919050565b600060208284031215610d2857600080fd5b610d3182610cb7565b9392505050565b6000815180845260005b81811015610d5e57602081850181015186830182015201610d42565b506000602082860101526020601f19601f83011685010191505092915050565b85815260a060208201526000610d9760a0830187610d38565b8281036040840152610da98187610d38565b606084019590955250509015156080909101529392505050565b634e487b7160e01b600052604160045260246000fd5b600082601f830112610dea57600080fd5b813567ffffffffffffffff80821115610e0557610e05610dc3565b604051601f8301601f19908116603f01168101908282118183101715610e2d57610e2d610dc3565b81604052838152866020858801011115610e4657600080fd5b836020870160208301376000602085830101528094505050505092915050565b600080600060608486031215610e7b57600080fd5b833567ffffffffffffffff80821115610e9357600080fd5b610e9f87838801610dd9565b94506020860135915080821115610eb557600080fd5b50610ec286828701610dd9565b925050604084013590509250925092565b600181811c90821680610ee757607f821691505b602082108103610f0757634e487b7160e01b600052602260045260246000fd5b50919050565b600060208284031215610f1f57600080fd5b5051919050565b634e487b7160e01b600052601160045260246000fd5b80820281158282048414176102f6576102f6610f26565b600082610f7057634e487b7160e01b600052601260045260246000fd5b500490565b818103818111156102f6576102f6610f26565b808201808211156102f6576102f6610f26565b601f821115610fe557600081815260208120601f850160051c81016020861015610fc25750805b601f850160051c820191505b81811015610fe157828155600101610fce565b5050505b505050565b815167ffffffffffffffff81111561100457611004610dc3565b611018816110128454610ed3565b84610f9b565b602080601f83116001811461104d57600084156110355750858301515b600019600386901b1c1916600185901b178555610fe1565b600085815260208120601f198616915b8281101561107c5788860151825594840194600190910190840161105d565b508582101561109a5787850151600019600388901b60f8161c191681555b5050505050600190811b01905550565b6040815260006110bd6040830185610d38565b9050826020830152939250505056fea2646970667358221220d8303f4a067ea8c5df0ad792551f65d1c98bbe8cf2c02a3fcc336e050155afe964736f6c63430008130033",
  "immutableReferences": {},
  "source": "// SPDX-License-Identifier: MIT\r\npragma solidity ^0.8.19;\r\n\r\ninterface ILoyaltyRewards {\n    function recordPurchase(address buyer, uint256 points, uint256 xp) external;\n    function discountBpsOf(address user) external view returns (uint256);\n    function consumeDiscount(address user) external returns (uint256);\n}\n\r\ncontract GymMembershipPayment {\r\n    struct Product {\r\n        uint256 id;\r\n        string name;\r\n        string description;\r\n        uint256 priceWei;\r\n        bool active;\r\n    }\r\n\r\n    address payable public seller;\r\n    address public loyaltyContract;\r\n    uint256 public productCount;\r\n\r\n    mapping(uint256 => Product) private products;\n    mapping(address => mapping(uint256 => bool)) private purchases;\n    mapping(address => uint256) private activeMembership;\n\r\n    event ProductAdded(uint256 indexed id, string name, uint256 priceWei);\n    event ProductPurchased(uint256 indexed id, address indexed buyer, uint256 priceWei);\n    event MembershipCanceled(address indexed buyer, uint256 indexed id);\n    event LoyaltyContractUpdated(address indexed loyaltyContract);\n\r\n    modifier onlySeller() {\r\n        require(msg.sender == seller, \"Only seller\");\r\n        _;\r\n    }\r\n\r\n    constructor(address _loyaltyContract) {\r\n        require(_loyaltyContract != address(0), \"Invalid loyalty contract\");\r\n        seller = payable(msg.sender);\r\n        loyaltyContract = _loyaltyContract;\r\n    }\r\n\r\n    function updateLoyaltyContract(address _loyaltyContract) external onlySeller {\r\n        require(_loyaltyContract != address(0), \"Invalid loyalty contract\");\r\n        loyaltyContract = _loyaltyContract;\r\n        emit LoyaltyContractUpdated(_loyaltyContract);\r\n    }\r\n\r\n    function addProduct(string memory _name, string memory _description, uint256 _priceWei) external onlySeller {\r\n        require(_priceWei > 0, \"Price must be > 0\");\r\n        productCount += 1;\r\n        products[productCount] = Product({\r\n            id: productCount,\r\n            name: _name,\r\n            description: _description,\r\n            priceWei: _priceWei,\r\n            active: true\r\n        });\r\n        emit ProductAdded(productCount, _name, _priceWei);\r\n    }\r\n\r\n    function getProduct(uint256 _id)\r\n        external\r\n        view\r\n        returns (uint256 id, string memory name, string memory description, uint256 priceWei, bool active)\r\n    {\r\n        Product memory product = products[_id];\r\n        return (product.id, product.name, product.description, product.priceWei, product.active);\r\n    }\r\n\r\n    function hasPurchased(address _buyer, uint256 _id) external view returns (bool) {\n        return purchases[_buyer][_id];\n    }\n\n    function activeMembershipOf(address _buyer) external view returns (uint256) {\n        return activeMembership[_buyer];\n    }\n\n    function purchaseProduct(uint256 _id) external payable {\n        Product memory product = products[_id];\n        require(product.id != 0, \"Invalid product\");\n        require(product.active, \"Product inactive\");\n\n        uint256 discountBps = 0;\n        if (loyaltyContract != address(0)) {\n            discountBps = ILoyaltyRewards(loyaltyContract).discountBpsOf(msg.sender);\n        }\n        uint256 finalPrice = product.priceWei;\n        if (discountBps > 0) {\n            finalPrice = product.priceWei - ((product.priceWei * discountBps) / 10000);\n        }\n        require(msg.value == finalPrice, \"Incorrect ETH value\");\n        require(activeMembership[msg.sender] != _id, \"Membership already active\");\n\n        uint256 previous = activeMembership[msg.sender];\n        if (previous != 0 && previous != _id) {\n            purchases[msg.sender][previous] = false;\n        }\n\n        purchases[msg.sender][_id] = true;\n        activeMembership[msg.sender] = _id;\n        (bool sent, ) = seller.call{value: msg.value}(\"\");\n        require(sent, \"Payment failed\");\n\n        if (discountBps > 0) {\n            ILoyaltyRewards(loyaltyContract).consumeDiscount(msg.sender);\n        }\n\n        uint256 points = product.priceWei / 5e15; // 0.005 ETH = 1 point\n        if (points == 0) {\n            points = 1;\n        }\n        uint256 xp = points * 10;\n        ILoyaltyRewards(loyaltyContract).recordPurchase(msg.sender, points, xp);\r\n\n        emit ProductPurchased(_id, msg.sender, product.priceWei);\n    }\n\n    function cancelMembership() external {\n        uint256 current = activeMembership[msg.sender];\n        require(current != 0, \"No active membership\");\n        purchases[msg.sender][current] = false;\n        activeMembership[msg.sender] = 0;\n        emit MembershipCanceled(msg.sender, current);\n    }\n}\n",
  "sourcePath": "C:\\Users\\24026513\\OneDrive - Republic Polytechnic\\Y2\\Sem 2\\C373\\FA 373 final code\\C373-FA-2.0\\DAppCommerce\\contracts\\GymMembershipPayment.sol",
  "compiler": {
    "name": "solc",
    "version": "0.8.19+commit.7dd6d404.Emscripten.clang"
  },
  "schemaVersion": "3.4.16",
  "updatedAt": "2026-01-30T07:54:21.659Z",
  "networkType": "ethereum",
  "devdoc": {
    "kind": "dev",
    "methods": {},
    "version": 1
  },
  "userdoc": {
    "kind": "user",
    "methods": {},
    "version": 1
  }
}