{
  "contractName": "LoyaltyRewards",
  "abi": [
    {
      "inputs": [],
      "stateMutability": "nonpayable",
      "type": "constructor"
    },
    {
      "anonymous": false,
      "inputs": [
        {
          "indexed": true,
          "internalType": "address",
          "name": "user",
          "type": "address"
        },
        {
          "indexed": false,
          "internalType": "uint256",
          "name": "bps",
          "type": "uint256"
        }
      ],
      "name": "DiscountConsumed",
      "type": "event"
    },
    {
      "anonymous": false,
      "inputs": [
        {
          "indexed": true,
          "internalType": "address",
          "name": "user",
          "type": "address"
        },
        {
          "indexed": false,
          "internalType": "uint256",
          "name": "bps",
          "type": "uint256"
        },
        {
          "indexed": false,
          "internalType": "uint256",
          "name": "pointsSpent",
          "type": "uint256"
        }
      ],
      "name": "DiscountRedeemed",
      "type": "event"
    },
    {
      "anonymous": false,
      "inputs": [
        {
          "indexed": true,
          "internalType": "address",
          "name": "membershipContract",
          "type": "address"
        }
      ],
      "name": "MembershipContractUpdated",
      "type": "event"
    },
    {
      "anonymous": false,
      "inputs": [
        {
          "indexed": true,
          "internalType": "address",
          "name": "paymentContract",
          "type": "address"
        }
      ],
      "name": "PaymentContractUpdated",
      "type": "event"
    },
    {
      "anonymous": false,
      "inputs": [
        {
          "indexed": true,
          "internalType": "address",
          "name": "user",
          "type": "address"
        },
        {
          "indexed": false,
          "internalType": "uint256",
          "name": "amount",
          "type": "uint256"
        }
      ],
      "name": "Redeemed",
      "type": "event"
    },
    {
      "anonymous": false,
      "inputs": [
        {
          "indexed": true,
          "internalType": "address",
          "name": "user",
          "type": "address"
        },
        {
          "indexed": false,
          "internalType": "uint256",
          "name": "points",
          "type": "uint256"
        },
        {
          "indexed": false,
          "internalType": "uint256",
          "name": "xp",
          "type": "uint256"
        },
        {
          "indexed": false,
          "internalType": "uint256",
          "name": "purchases",
          "type": "uint256"
        }
      ],
      "name": "RewardsRecorded",
      "type": "event"
    },
    {
      "inputs": [],
      "name": "DISCOUNT_BPS_10",
      "outputs": [
        {
          "internalType": "uint256",
          "name": "",
          "type": "uint256"
        }
      ],
      "stateMutability": "view",
      "type": "function",
      "constant": true
    },
    {
      "inputs": [],
      "name": "DISCOUNT_POINTS_10",
      "outputs": [
        {
          "internalType": "uint256",
          "name": "",
          "type": "uint256"
        }
      ],
      "stateMutability": "view",
      "type": "function",
      "constant": true
    },
    {
      "inputs": [],
      "name": "membershipContract",
      "outputs": [
        {
          "internalType": "address",
          "name": "",
          "type": "address"
        }
      ],
      "stateMutability": "view",
      "type": "function",
      "constant": true
    },
    {
      "inputs": [],
      "name": "owner",
      "outputs": [
        {
          "internalType": "address",
          "name": "",
          "type": "address"
        }
      ],
      "stateMutability": "view",
      "type": "function",
      "constant": true
    },
    {
      "inputs": [],
      "name": "paymentContract",
      "outputs": [
        {
          "internalType": "address",
          "name": "",
          "type": "address"
        }
      ],
      "stateMutability": "view",
      "type": "function",
      "constant": true
    },
    {
      "inputs": [
        {
          "internalType": "address",
          "name": "_paymentContract",
          "type": "address"
        }
      ],
      "name": "setPaymentContract",
      "outputs": [],
      "stateMutability": "nonpayable",
      "type": "function"
    },
    {
      "inputs": [
        {
          "internalType": "address",
          "name": "_membershipContract",
          "type": "address"
        }
      ],
      "name": "setMembershipContract",
      "outputs": [],
      "stateMutability": "nonpayable",
      "type": "function"
    },
    {
      "inputs": [
        {
          "internalType": "address",
          "name": "buyer",
          "type": "address"
        },
        {
          "internalType": "uint256",
          "name": "rewardPoints",
          "type": "uint256"
        },
        {
          "internalType": "uint256",
          "name": "rewardXp",
          "type": "uint256"
        }
      ],
      "name": "recordPurchase",
      "outputs": [],
      "stateMutability": "nonpayable",
      "type": "function"
    },
    {
      "inputs": [
        {
          "internalType": "uint256",
          "name": "amount",
          "type": "uint256"
        }
      ],
      "name": "redeem",
      "outputs": [],
      "stateMutability": "nonpayable",
      "type": "function"
    },
    {
      "inputs": [
        {
          "internalType": "uint256",
          "name": "bps",
          "type": "uint256"
        }
      ],
      "name": "redeemDiscount",
      "outputs": [],
      "stateMutability": "nonpayable",
      "type": "function"
    },
    {
      "inputs": [
        {
          "internalType": "address",
          "name": "user",
          "type": "address"
        }
      ],
      "name": "discountBpsOf",
      "outputs": [
        {
          "internalType": "uint256",
          "name": "",
          "type": "uint256"
        }
      ],
      "stateMutability": "view",
      "type": "function",
      "constant": true
    },
    {
      "inputs": [
        {
          "internalType": "address",
          "name": "user",
          "type": "address"
        }
      ],
      "name": "consumeDiscount",
      "outputs": [
        {
          "internalType": "uint256",
          "name": "",
          "type": "uint256"
        }
      ],
      "stateMutability": "nonpayable",
      "type": "function"
    },
    {
      "inputs": [
        {
          "internalType": "address",
          "name": "user",
          "type": "address"
        }
      ],
      "name": "balanceOf",
      "outputs": [
        {
          "internalType": "uint256",
          "name": "",
          "type": "uint256"
        }
      ],
      "stateMutability": "view",
      "type": "function",
      "constant": true
    },
    {
      "inputs": [
        {
          "internalType": "address",
          "name": "user",
          "type": "address"
        }
      ],
      "name": "xpOf",
      "outputs": [
        {
          "internalType": "uint256",
          "name": "",
          "type": "uint256"
        }
      ],
      "stateMutability": "view",
      "type": "function",
      "constant": true
    },
    {
      "inputs": [
        {
          "internalType": "address",
          "name": "user",
          "type": "address"
        }
      ],
      "name": "purchasesOf",
      "outputs": [
        {
          "internalType": "uint256",
          "name": "",
          "type": "uint256"
        }
      ],
      "stateMutability": "view",
      "type": "function",
      "constant": true
    }
  ],
  "bytecode": "0x608060405234801561001057600080fd5b50600080546001600160a01b03191633179055610a6a806100326000396000f3fe608060405234801561001057600080fd5b50600436106100f55760003560e01c80639c91dd5611610097578063c9c33f0311610066578063c9c33f0314610225578063d38fe43f14610238578063db006a751461024b578063fe9cc2be1461025e57600080fd5b80639c91dd56146101ce5780639d13a081146101e1578063bccb1e911461020a578063be3862391461021257600080fd5b806370a08231116100d357806370a0823114610156578063883c00d61461017f5780638abb20cc146101a85780638da5cb5b146101bb57600080fd5b806320661f4f146100fa578063298ff14b1461011657806351ec8d1e1461012b575b600080fd5b6101036103e881565b6040519081526020015b60405180910390f35b61012961012436600461096d565b610287565b005b60025461013e906001600160a01b031681565b6040516001600160a01b03909116815260200161010d565b61010361016436600461099d565b6001600160a01b031660009081526003602052604090205490565b61010361018d36600461099d565b6001600160a01b031660009081526004602052604090205490565b6101296101b636600461099d565b610403565b60005461013e906001600160a01b031681565b60015461013e906001600160a01b031681565b6101036101ef36600461099d565b6001600160a01b031660009081526005602052604090205490565b610103601e81565b61010361022036600461099d565b6104ea565b6101296102333660046109bf565b6105bc565b61012961024636600461099d565b61078d565b61012961025936600461096d565b610874565b61010361026c36600461099d565b6001600160a01b031660009081526006602052604090205490565b6103e881146102d45760405162461bcd60e51b8152602060048201526014602482015273155b9cdd5c1c1bdc9d195908191a5cd8dbdd5b9d60621b60448201526064015b60405180910390fd5b33600090815260066020526040902054156103315760405162461bcd60e51b815260206004820152601760248201527f446973636f756e7420616c72656164792061637469766500000000000000000060448201526064016102cb565b33600090815260036020526040902054601e11156103855760405162461bcd60e51b81526020600482015260116024820152704e6f7420656e6f75676820706f696e747360781b60448201526064016102cb565b3360009081526003602052604081208054601e92906103a5908490610a08565b90915550503360008181526006602052604090819020839055517f3b9c1ff724526d9f76b30d89fbe33934482d115cec98d2a72e0786f750943bf0906103f8908490601e90918252602082015260400190565b60405180910390a250565b6000546001600160a01b0316331461044a5760405162461bcd60e51b815260206004820152600a60248201526927b7363c9037bbb732b960b11b60448201526064016102cb565b6001600160a01b0381166104a05760405162461bcd60e51b815260206004820152601860248201527f496e76616c6964207061796d656e7420636f6e7472616374000000000000000060448201526064016102cb565b600180546001600160a01b0319166001600160a01b0383169081179091556040517fa4d65b15628f8e2fdcde0a3d69845b31cbbc0e699d9c6571c97a2429c32fc52b90600090a250565b6001546000906001600160a01b0316331461053f5760405162461bcd60e51b815260206004820152601560248201527413db9b1e481c185e5b595b9d0818dbdb9d1c9858dd605a1b60448201526064016102cb565b6001600160a01b03821660009081526006602052604090205480156105b4576001600160a01b03831660008181526006602052604080822091909155517f0a2b84d6855d2bf79eed747fdd641be45d910390b36364751fc38db6f392f611906105ab9084815260200190565b60405180910390a25b90505b919050565b6001546001600160a01b0316331461060e5760405162461bcd60e51b815260206004820152601560248201527413db9b1e481c185e5b595b9d0818dbdb9d1c9858dd605a1b60448201526064016102cb565b6001600160a01b03831660009081526003602052604081208054849290610636908490610a21565b90915550506001600160a01b03831660009081526004602052604081208054839290610663908490610a21565b90915550506001600160a01b0383166000908152600560205260408120805460019290610691908490610a21565b90915550506002546001600160a01b031615610730576002546001600160a01b0384811660008181526004602081815260408084205460059092529283902054925163643c390160e01b8152918201939093526024810192909252604482015291169063643c390190606401600060405180830381600087803b15801561071757600080fd5b505af115801561072b573d6000803e3d6000fd5b505050505b6001600160a01b0383166000818152600560209081526040918290205482518681529182018590528183015290517fd1526c7ac14378127bbde69ebed170b0e89157fc0a054cb9b0c440638cf899ed9181900360600190a2505050565b6000546001600160a01b031633146107d45760405162461bcd60e51b815260206004820152600a60248201526927b7363c9037bbb732b960b11b60448201526064016102cb565b6001600160a01b03811661082a5760405162461bcd60e51b815260206004820152601b60248201527f496e76616c6964206d656d6265727368697020636f6e7472616374000000000060448201526064016102cb565b600280546001600160a01b0319166001600160a01b0383169081179091556040517fe9bbf5b6182b0e736e0f2ea3ebd067b5e1b08c6e58200d8c703a9767ec5c3e3790600090a250565b600081116108c45760405162461bcd60e51b815260206004820152601760248201527f416d6f756e74206d75737420626520706f73697469766500000000000000000060448201526064016102cb565b336000908152600360205260409020548111156109175760405162461bcd60e51b81526020600482015260116024820152704e6f7420656e6f75676820706f696e747360781b60448201526064016102cb565b3360009081526003602052604081208054839290610936908490610a08565b909155505060405181815233907f4896181ff8f4543cc00db9fe9b6fb7e6f032b7eb772c72ab1ec1b4d2e03b9369906020016103f8565b60006020828403121561097f57600080fd5b5035919050565b80356001600160a01b03811681146105b757600080fd5b6000602082840312156109af57600080fd5b6109b882610986565b9392505050565b6000806000606084860312156109d457600080fd5b6109dd84610986565b95602085013595506040909401359392505050565b634e487b7160e01b600052601160045260246000fd5b81810381811115610a1b57610a1b6109f2565b92915050565b80820180821115610a1b57610a1b6109f256fea2646970667358221220bd87d95294c8947170fd06c26dfea9511713fdd607557a43465470cad0a1f7cb64736f6c63430008130033",
  "immutableReferences": {},
  "source": "// SPDX-License-Identifier: MIT\r\npragma solidity ^0.8.19;\r\n\r\ninterface IMembershipNFT {\r\n    function updateMembership(address user, uint256 xp, uint256 purchases) external;\r\n}\r\n\r\ncontract LoyaltyRewards {\n    address public owner;\n    address public paymentContract;\n    address public membershipContract;\n\n    mapping(address => uint256) private points;\n    mapping(address => uint256) private xpTotal;\n    mapping(address => uint256) private purchaseCount;\n    mapping(address => uint256) private pendingDiscountBps;\n\n    uint256 public constant DISCOUNT_BPS_10 = 1000;\n    uint256 public constant DISCOUNT_POINTS_10 = 30;\n\n    event RewardsRecorded(address indexed user, uint256 points, uint256 xp, uint256 purchases);\n    event Redeemed(address indexed user, uint256 amount);\n    event DiscountRedeemed(address indexed user, uint256 bps, uint256 pointsSpent);\n    event DiscountConsumed(address indexed user, uint256 bps);\n    event PaymentContractUpdated(address indexed paymentContract);\n    event MembershipContractUpdated(address indexed membershipContract);\n\r\n    modifier onlyOwner() {\r\n        require(msg.sender == owner, \"Only owner\");\r\n        _;\r\n    }\r\n\r\n    modifier onlyPayment() {\r\n        require(msg.sender == paymentContract, \"Only payment contract\");\r\n        _;\r\n    }\r\n\r\n    constructor() {\r\n        owner = msg.sender;\r\n    }\r\n\r\n    function setPaymentContract(address _paymentContract) external onlyOwner {\r\n        require(_paymentContract != address(0), \"Invalid payment contract\");\r\n        paymentContract = _paymentContract;\r\n        emit PaymentContractUpdated(_paymentContract);\r\n    }\r\n\r\n    function setMembershipContract(address _membershipContract) external onlyOwner {\r\n        require(_membershipContract != address(0), \"Invalid membership contract\");\r\n        membershipContract = _membershipContract;\r\n        emit MembershipContractUpdated(_membershipContract);\r\n    }\r\n\r\n    function recordPurchase(address buyer, uint256 rewardPoints, uint256 rewardXp) external onlyPayment {\r\n        points[buyer] += rewardPoints;\r\n        xpTotal[buyer] += rewardXp;\r\n        purchaseCount[buyer] += 1;\r\n\r\n        if (membershipContract != address(0)) {\r\n            IMembershipNFT(membershipContract).updateMembership(buyer, xpTotal[buyer], purchaseCount[buyer]);\r\n        }\r\n\r\n        emit RewardsRecorded(buyer, rewardPoints, rewardXp, purchaseCount[buyer]);\r\n    }\r\n\r\n    function redeem(uint256 amount) external {\n        require(amount > 0, \"Amount must be positive\");\n        require(points[msg.sender] >= amount, \"Not enough points\");\n        points[msg.sender] -= amount;\n        emit Redeemed(msg.sender, amount);\n    }\n\n    function redeemDiscount(uint256 bps) external {\n        require(bps == DISCOUNT_BPS_10, \"Unsupported discount\");\n        require(pendingDiscountBps[msg.sender] == 0, \"Discount already active\");\n        require(points[msg.sender] >= DISCOUNT_POINTS_10, \"Not enough points\");\n        points[msg.sender] -= DISCOUNT_POINTS_10;\n        pendingDiscountBps[msg.sender] = bps;\n        emit DiscountRedeemed(msg.sender, bps, DISCOUNT_POINTS_10);\n    }\n\n    function discountBpsOf(address user) external view returns (uint256) {\n        return pendingDiscountBps[user];\n    }\n\n    function consumeDiscount(address user) external onlyPayment returns (uint256) {\n        uint256 bps = pendingDiscountBps[user];\n        if (bps > 0) {\n            pendingDiscountBps[user] = 0;\n            emit DiscountConsumed(user, bps);\n        }\n        return bps;\n    }\n\n    function balanceOf(address user) external view returns (uint256) {\r\n        return points[user];\r\n    }\r\n\r\n    function xpOf(address user) external view returns (uint256) {\r\n        return xpTotal[user];\r\n    }\r\n\r\n    function purchasesOf(address user) external view returns (uint256) {\r\n        return purchaseCount[user];\r\n    }\r\n}\r\n",
  "sourcePath": "C:\\Users\\24026513\\OneDrive - Republic Polytechnic\\Y2\\Sem 2\\C373\\FA 373 final code\\C373-FA-2.0\\DAppCommerce\\contracts\\LoyaltyRewards.sol",
  "compiler": {
    "name": "solc",
    "version": "0.8.19+commit.7dd6d404.Emscripten.clang"
  },
  "schemaVersion": "3.4.16",
  "updatedAt": "2026-01-29T09:02:20.771Z",
  "networkType": "ethereum",
  "devdoc": {
    "kind": "dev",
    "methods": {},
    "version": 1
  },
  "userdoc": {
    "kind": "user",
    "methods": {},
    "version": 1
  }
}