{
  "contractName": "LoyaltyRewards",
  "abi": [
    {
      "inputs": [],
      "stateMutability": "nonpayable",
      "type": "constructor"
    },
    {
      "anonymous": false,
      "inputs": [
        {
          "indexed": true,
          "internalType": "address",
          "name": "membershipContract",
          "type": "address"
        }
      ],
      "name": "MembershipContractUpdated",
      "type": "event"
    },
    {
      "anonymous": false,
      "inputs": [
        {
          "indexed": true,
          "internalType": "address",
          "name": "paymentContract",
          "type": "address"
        }
      ],
      "name": "PaymentContractUpdated",
      "type": "event"
    },
    {
      "anonymous": false,
      "inputs": [
        {
          "indexed": true,
          "internalType": "address",
          "name": "user",
          "type": "address"
        },
        {
          "indexed": false,
          "internalType": "uint256",
          "name": "amount",
          "type": "uint256"
        }
      ],
      "name": "Redeemed",
      "type": "event"
    },
    {
      "anonymous": false,
      "inputs": [
        {
          "indexed": true,
          "internalType": "address",
          "name": "user",
          "type": "address"
        },
        {
          "indexed": false,
          "internalType": "uint256",
          "name": "points",
          "type": "uint256"
        },
        {
          "indexed": false,
          "internalType": "uint256",
          "name": "xp",
          "type": "uint256"
        },
        {
          "indexed": false,
          "internalType": "uint256",
          "name": "purchases",
          "type": "uint256"
        }
      ],
      "name": "RewardsRecorded",
      "type": "event"
    },
    {
      "inputs": [],
      "name": "membershipContract",
      "outputs": [
        {
          "internalType": "address",
          "name": "",
          "type": "address"
        }
      ],
      "stateMutability": "view",
      "type": "function",
      "constant": true
    },
    {
      "inputs": [],
      "name": "owner",
      "outputs": [
        {
          "internalType": "address",
          "name": "",
          "type": "address"
        }
      ],
      "stateMutability": "view",
      "type": "function",
      "constant": true
    },
    {
      "inputs": [],
      "name": "paymentContract",
      "outputs": [
        {
          "internalType": "address",
          "name": "",
          "type": "address"
        }
      ],
      "stateMutability": "view",
      "type": "function",
      "constant": true
    },
    {
      "inputs": [
        {
          "internalType": "address",
          "name": "_paymentContract",
          "type": "address"
        }
      ],
      "name": "setPaymentContract",
      "outputs": [],
      "stateMutability": "nonpayable",
      "type": "function"
    },
    {
      "inputs": [
        {
          "internalType": "address",
          "name": "_membershipContract",
          "type": "address"
        }
      ],
      "name": "setMembershipContract",
      "outputs": [],
      "stateMutability": "nonpayable",
      "type": "function"
    },
    {
      "inputs": [
        {
          "internalType": "address",
          "name": "buyer",
          "type": "address"
        },
        {
          "internalType": "uint256",
          "name": "rewardPoints",
          "type": "uint256"
        },
        {
          "internalType": "uint256",
          "name": "rewardXp",
          "type": "uint256"
        }
      ],
      "name": "recordPurchase",
      "outputs": [],
      "stateMutability": "nonpayable",
      "type": "function"
    },
    {
      "inputs": [
        {
          "internalType": "uint256",
          "name": "amount",
          "type": "uint256"
        }
      ],
      "name": "redeem",
      "outputs": [],
      "stateMutability": "nonpayable",
      "type": "function"
    },
    {
      "inputs": [
        {
          "internalType": "address",
          "name": "user",
          "type": "address"
        }
      ],
      "name": "balanceOf",
      "outputs": [
        {
          "internalType": "uint256",
          "name": "",
          "type": "uint256"
        }
      ],
      "stateMutability": "view",
      "type": "function",
      "constant": true
    },
    {
      "inputs": [
        {
          "internalType": "address",
          "name": "user",
          "type": "address"
        }
      ],
      "name": "xpOf",
      "outputs": [
        {
          "internalType": "uint256",
          "name": "",
          "type": "uint256"
        }
      ],
      "stateMutability": "view",
      "type": "function",
      "constant": true
    },
    {
      "inputs": [
        {
          "internalType": "address",
          "name": "user",
          "type": "address"
        }
      ],
      "name": "purchasesOf",
      "outputs": [
        {
          "internalType": "uint256",
          "name": "",
          "type": "uint256"
        }
      ],
      "stateMutability": "view",
      "type": "function",
      "constant": true
    }
  ],
  "bytecode": "0x608060405234801561001057600080fd5b50600080546001600160a01b03191633179055610775806100326000396000f3fe608060405234801561001057600080fd5b506004361061009e5760003560e01c80639c91dd56116100665780639c91dd561461015b5780639d13a0811461016e578063c9c33f0314610197578063d38fe43f146101aa578063db006a75146101bd57600080fd5b806351ec8d1e146100a357806370a08231146100d3578063883c00d61461010a5780638abb20cc146101335780638da5cb5b14610148575b600080fd5b6002546100b6906001600160a01b031681565b6040516001600160a01b0390911681526020015b60405180910390f35b6100fc6100e136600461068f565b6001600160a01b031660009081526003602052604090205490565b6040519081526020016100ca565b6100fc61011836600461068f565b6001600160a01b031660009081526004602052604090205490565b61014661014136600461068f565b6101d0565b005b6000546100b6906001600160a01b031681565b6001546100b6906001600160a01b031681565b6100fc61017c36600461068f565b6001600160a01b031660009081526005602052604090205490565b6101466101a53660046106b1565b6102bc565b6101466101b836600461068f565b61048d565b6101466101cb3660046106e4565b610574565b6000546001600160a01b0316331461021c5760405162461bcd60e51b815260206004820152600a60248201526927b7363c9037bbb732b960b11b60448201526064015b60405180910390fd5b6001600160a01b0381166102725760405162461bcd60e51b815260206004820152601860248201527f496e76616c6964207061796d656e7420636f6e747261637400000000000000006044820152606401610213565b600180546001600160a01b0319166001600160a01b0383169081179091556040517fa4d65b15628f8e2fdcde0a3d69845b31cbbc0e699d9c6571c97a2429c32fc52b90600090a250565b6001546001600160a01b0316331461030e5760405162461bcd60e51b815260206004820152601560248201527413db9b1e481c185e5b595b9d0818dbdb9d1c9858dd605a1b6044820152606401610213565b6001600160a01b03831660009081526003602052604081208054849290610336908490610713565b90915550506001600160a01b03831660009081526004602052604081208054839290610363908490610713565b90915550506001600160a01b0383166000908152600560205260408120805460019290610391908490610713565b90915550506002546001600160a01b031615610430576002546001600160a01b0384811660008181526004602081815260408084205460059092529283902054925163643c390160e01b8152918201939093526024810192909252604482015291169063643c390190606401600060405180830381600087803b15801561041757600080fd5b505af115801561042b573d6000803e3d6000fd5b505050505b6001600160a01b0383166000818152600560209081526040918290205482518681529182018590528183015290517fd1526c7ac14378127bbde69ebed170b0e89157fc0a054cb9b0c440638cf899ed9181900360600190a2505050565b6000546001600160a01b031633146104d45760405162461bcd60e51b815260206004820152600a60248201526927b7363c9037bbb732b960b11b6044820152606401610213565b6001600160a01b03811661052a5760405162461bcd60e51b815260206004820152601b60248201527f496e76616c6964206d656d6265727368697020636f6e747261637400000000006044820152606401610213565b600280546001600160a01b0319166001600160a01b0383169081179091556040517fe9bbf5b6182b0e736e0f2ea3ebd067b5e1b08c6e58200d8c703a9767ec5c3e3790600090a250565b600081116105c45760405162461bcd60e51b815260206004820152601760248201527f416d6f756e74206d75737420626520706f7369746976650000000000000000006044820152606401610213565b336000908152600360205260409020548111156106175760405162461bcd60e51b81526020600482015260116024820152704e6f7420656e6f75676820706f696e747360781b6044820152606401610213565b336000908152600360205260408120805483929061063690849061072c565b909155505060405181815233907f4896181ff8f4543cc00db9fe9b6fb7e6f032b7eb772c72ab1ec1b4d2e03b93699060200160405180910390a250565b80356001600160a01b038116811461068a57600080fd5b919050565b6000602082840312156106a157600080fd5b6106aa82610673565b9392505050565b6000806000606084860312156106c657600080fd5b6106cf84610673565b95602085013595506040909401359392505050565b6000602082840312156106f657600080fd5b5035919050565b634e487b7160e01b600052601160045260246000fd5b80820180821115610726576107266106fd565b92915050565b81810381811115610726576107266106fd56fea2646970667358221220044ec14081f0dded279f78f2dbb21c5c574d27adf2381291359251537bd15aaf64736f6c63430008130033",
  "immutableReferences": {},
  "source": "// SPDX-License-Identifier: MIT\r\npragma solidity ^0.8.19;\r\n\r\ninterface IMembershipNFT {\r\n    function updateMembership(address user, uint256 xp, uint256 purchases) external;\r\n}\r\n\r\ncontract LoyaltyRewards {\r\n    address public owner;\r\n    address public paymentContract;\r\n    address public membershipContract;\r\n\r\n    mapping(address => uint256) private points;\r\n    mapping(address => uint256) private xpTotal;\r\n    mapping(address => uint256) private purchaseCount;\r\n\r\n    event RewardsRecorded(address indexed user, uint256 points, uint256 xp, uint256 purchases);\r\n    event Redeemed(address indexed user, uint256 amount);\r\n    event PaymentContractUpdated(address indexed paymentContract);\r\n    event MembershipContractUpdated(address indexed membershipContract);\r\n\r\n    modifier onlyOwner() {\r\n        require(msg.sender == owner, \"Only owner\");\r\n        _;\r\n    }\r\n\r\n    modifier onlyPayment() {\r\n        require(msg.sender == paymentContract, \"Only payment contract\");\r\n        _;\r\n    }\r\n\r\n    constructor() {\r\n        owner = msg.sender;\r\n    }\r\n\r\n    function setPaymentContract(address _paymentContract) external onlyOwner {\r\n        require(_paymentContract != address(0), \"Invalid payment contract\");\r\n        paymentContract = _paymentContract;\r\n        emit PaymentContractUpdated(_paymentContract);\r\n    }\r\n\r\n    function setMembershipContract(address _membershipContract) external onlyOwner {\r\n        require(_membershipContract != address(0), \"Invalid membership contract\");\r\n        membershipContract = _membershipContract;\r\n        emit MembershipContractUpdated(_membershipContract);\r\n    }\r\n\r\n    function recordPurchase(address buyer, uint256 rewardPoints, uint256 rewardXp) external onlyPayment {\r\n        points[buyer] += rewardPoints;\r\n        xpTotal[buyer] += rewardXp;\r\n        purchaseCount[buyer] += 1;\r\n\r\n        if (membershipContract != address(0)) {\r\n            IMembershipNFT(membershipContract).updateMembership(buyer, xpTotal[buyer], purchaseCount[buyer]);\r\n        }\r\n\r\n        emit RewardsRecorded(buyer, rewardPoints, rewardXp, purchaseCount[buyer]);\r\n    }\r\n\r\n    function redeem(uint256 amount) external {\r\n        require(amount > 0, \"Amount must be positive\");\r\n        require(points[msg.sender] >= amount, \"Not enough points\");\r\n        points[msg.sender] -= amount;\r\n        emit Redeemed(msg.sender, amount);\r\n    }\r\n\r\n    function balanceOf(address user) external view returns (uint256) {\r\n        return points[user];\r\n    }\r\n\r\n    function xpOf(address user) external view returns (uint256) {\r\n        return xpTotal[user];\r\n    }\r\n\r\n    function purchasesOf(address user) external view returns (uint256) {\r\n        return purchaseCount[user];\r\n    }\r\n}\r\n",
  "sourcePath": "C:\\Users\\24026513\\OneDrive - Republic Polytechnic\\Y2\\Sem 2\\C373\\C373 FA 2.0\\C373-FA-2.0\\DAppCommerce\\contracts\\LoyaltyRewards.sol",
  "compiler": {
    "name": "solc",
    "version": "0.8.19+commit.7dd6d404.Emscripten.clang"
  },
  "schemaVersion": "3.4.16",
  "updatedAt": "2026-01-20T07:10:50.159Z",
  "networkType": "ethereum",
  "devdoc": {
    "kind": "dev",
    "methods": {},
    "version": 1
  },
  "userdoc": {
    "kind": "user",
    "methods": {},
    "version": 1
  }
}