{
  "contractName": "MembershipNFT",
  "abi": [
    {
      "anonymous": false,
      "inputs": [
        {
          "indexed": true,
          "internalType": "address",
          "name": "loyaltyContract",
          "type": "address"
        }
      ],
      "name": "LoyaltyContractUpdated",
      "type": "event"
    },
    {
      "anonymous": false,
      "inputs": [
        {
          "indexed": true,
          "internalType": "address",
          "name": "user",
          "type": "address"
        },
        {
          "indexed": false,
          "internalType": "uint8",
          "name": "newTier",
          "type": "uint8"
        }
      ],
      "name": "MembershipUpgraded",
      "type": "event"
    },
    {
      "inputs": [],
      "name": "loyaltyContract",
      "outputs": [
        {
          "internalType": "address",
          "name": "",
          "type": "address"
        }
      ],
      "stateMutability": "view",
      "type": "function",
      "constant": true
    },
    {
      "inputs": [
        {
          "internalType": "address",
          "name": "_loyaltyContract",
          "type": "address"
        }
      ],
      "name": "setLoyaltyContract",
      "outputs": [],
      "stateMutability": "nonpayable",
      "type": "function"
    },
    {
      "inputs": [
        {
          "internalType": "address",
          "name": "user",
          "type": "address"
        },
        {
          "internalType": "uint256",
          "name": "xp",
          "type": "uint256"
        },
        {
          "internalType": "uint256",
          "name": "purchases",
          "type": "uint256"
        }
      ],
      "name": "updateMembership",
      "outputs": [],
      "stateMutability": "nonpayable",
      "type": "function"
    },
    {
      "inputs": [
        {
          "internalType": "address",
          "name": "user",
          "type": "address"
        }
      ],
      "name": "tierOf",
      "outputs": [
        {
          "internalType": "uint8",
          "name": "",
          "type": "uint8"
        }
      ],
      "stateMutability": "view",
      "type": "function",
      "constant": true
    },
    {
      "inputs": [
        {
          "internalType": "address",
          "name": "user",
          "type": "address"
        }
      ],
      "name": "isMember",
      "outputs": [
        {
          "internalType": "bool",
          "name": "",
          "type": "bool"
        }
      ],
      "stateMutability": "view",
      "type": "function",
      "constant": true
    },
    {
      "inputs": [
        {
          "internalType": "address",
          "name": "user",
          "type": "address"
        }
      ],
      "name": "tierLabel",
      "outputs": [
        {
          "internalType": "string",
          "name": "",
          "type": "string"
        }
      ],
      "stateMutability": "view",
      "type": "function",
      "constant": true
    }
  ],
  "bytecode": "0x608060405234801561001057600080fd5b5061055b806100206000396000f3fe608060405234801561001057600080fd5b50600436106100625760003560e01c80631ed24e2014610067578063643c3901146100975780636f2bc786146100ac578063a230c524146100cc578063c8f74bb81461010a578063fbb026b814610148575b600080fd5b60005461007a906001600160a01b031681565b6040516001600160a01b0390911681526020015b60405180910390f35b6100aa6100a5366004610482565b61015b565b005b6100bf6100ba3660046104b5565b61024d565b60405161008e91906104d7565b6100fa6100da3660046104b5565b6001600160a01b031660009081526001602052604090205460ff16151590565b604051901515815260200161008e565b6101366101183660046104b5565b6001600160a01b031660009081526001602052604090205460ff1690565b60405160ff909116815260200161008e565b6100aa6101563660046104b5565b61031d565b6000546001600160a01b031633146101b25760405162461bcd60e51b815260206004820152601560248201527413db9b1e481b1bde585b1d1e4818dbdb9d1c9858dd605a1b60448201526064015b60405180910390fd5b6001600160a01b03831660009081526001602052604081205460ff16906101d98484610418565b90508160ff168160ff161115610246576001600160a01b038516600081815260016020908152604091829020805460ff191660ff861690811790915591519182527faf262bd853a746871516b82c9c817a16a082ca468f2aff5278f9af40fb1df581910160405180910390a25b5050505050565b6001600160a01b03811660009081526001602081905260409091205460609160ff9091169081900361029d57505060408051808201909152600681526529b4b63b32b960d11b6020820152919050565b8060ff166002036102ca57505060408051808201909152600481526311dbdb1960e21b6020820152919050565b8060ff166003036102fb575050604080518082019091526008815267506c6174696e756d60c01b6020820152919050565b50506040805180820190915260048152634e6f6e6560e01b6020820152919050565b6000546001600160a01b0316158061033f57506000546001600160a01b031633145b61037a5760405162461bcd60e51b815260206004820152600c60248201526b155b985d5d1a1bdc9a5e995960a21b60448201526064016101a9565b6001600160a01b0381166103d05760405162461bcd60e51b815260206004820152601860248201527f496e76616c6964206c6f79616c747920636f6e7472616374000000000000000060448201526064016101a9565b600080546001600160a01b0319166001600160a01b038316908117825560405190917fe69649e81b79894f5f6db08576298c24c1d6d6ae75abf5a41acd5f0079b293d191a250565b6000600382101561042b57506000610460565b6101f4831061043c57506003610460565b60fa831061044c57506002610460565b6064831061045c57506001610460565b5060005b92915050565b80356001600160a01b038116811461047d57600080fd5b919050565b60008060006060848603121561049757600080fd5b6104a084610466565b95602085013595506040909401359392505050565b6000602082840312156104c757600080fd5b6104d082610466565b9392505050565b600060208083528351808285015260005b81811015610504578581018301518582016040015282016104e8565b506000604082860101526040601f19601f830116850101925050509291505056fea26469706673582212202e872f72e80eb6c0026401b0108b1aca9cf9594f25a34829bc2e3651acba854164736f6c63430008130033",
  "immutableReferences": {},
  "source": "// SPDX-License-Identifier: MIT\r\npragma solidity ^0.8.19;\r\n\r\ncontract MembershipNFT {\r\n    address public loyaltyContract;\r\n\r\n    mapping(address => uint8) private tiers;\r\n\r\n    event MembershipUpgraded(address indexed user, uint8 newTier);\r\n    event LoyaltyContractUpdated(address indexed loyaltyContract);\r\n\r\n    modifier onlyLoyalty() {\r\n        require(msg.sender == loyaltyContract, \"Only loyalty contract\");\r\n        _;\r\n    }\r\n\r\n    function setLoyaltyContract(address _loyaltyContract) external {\r\n        require(loyaltyContract == address(0) || msg.sender == loyaltyContract, \"Unauthorized\");\r\n        require(_loyaltyContract != address(0), \"Invalid loyalty contract\");\r\n        loyaltyContract = _loyaltyContract;\r\n        emit LoyaltyContractUpdated(_loyaltyContract);\r\n    }\r\n\r\n    function updateMembership(address user, uint256 xp, uint256 purchases) external onlyLoyalty {\r\n        uint8 currentTier = tiers[user];\r\n        uint8 newTier = _calculateTier(xp, purchases);\r\n        if (newTier > currentTier) {\r\n            tiers[user] = newTier;\r\n            emit MembershipUpgraded(user, newTier);\r\n        }\r\n    }\r\n\r\n    function tierOf(address user) external view returns (uint8) {\r\n        return tiers[user];\r\n    }\r\n\r\n    function isMember(address user) external view returns (bool) {\r\n        return tiers[user] > 0;\r\n    }\r\n\r\n    function tierLabel(address user) external view returns (string memory) {\r\n        uint8 tier = tiers[user];\r\n        if (tier == 1) return \"Silver\";\r\n        if (tier == 2) return \"Gold\";\r\n        if (tier == 3) return \"Platinum\";\r\n        return \"None\";\r\n    }\r\n\r\n    function _calculateTier(uint256 xp, uint256 purchases) internal pure returns (uint8) {\r\n        if (purchases < 3) {\r\n            return 0;\r\n        }\r\n        if (xp >= 500) {\r\n            return 3;\r\n        }\r\n        if (xp >= 250) {\r\n            return 2;\r\n        }\r\n        if (xp >= 100) {\r\n            return 1;\r\n        }\r\n        return 0;\r\n    }\r\n}\r\n",
  "sourcePath": "C:\\Users\\24026513\\OneDrive - Republic Polytechnic\\Y2\\Sem 2\\C373\\C373 FA 2.0\\C373-FA-2.0\\DAppCommerce\\contracts\\MembershipNFT.sol",
  "compiler": {
    "name": "solc",
    "version": "0.8.19+commit.7dd6d404.Emscripten.clang"
  },
  "schemaVersion": "3.4.16",
  "updatedAt": "2026-01-20T07:10:50.164Z",
  "networkType": "ethereum",
  "devdoc": {
    "kind": "dev",
    "methods": {},
    "version": 1
  },
  "userdoc": {
    "kind": "user",
    "methods": {},
    "version": 1
  }
}