{
  "contractName": "UserRegistry",
  "abi": [
    {
      "inputs": [],
      "stateMutability": "nonpayable",
      "type": "constructor"
    },
    {
      "anonymous": false,
      "inputs": [
        {
          "indexed": true,
          "internalType": "bytes32",
          "name": "emailHash",
          "type": "bytes32"
        },
        {
          "indexed": false,
          "internalType": "string",
          "name": "name",
          "type": "string"
        }
      ],
      "name": "UserRegistered",
      "type": "event"
    },
    {
      "anonymous": false,
      "inputs": [
        {
          "indexed": true,
          "internalType": "bytes32",
          "name": "emailHash",
          "type": "bytes32"
        },
        {
          "indexed": false,
          "internalType": "string",
          "name": "name",
          "type": "string"
        },
        {
          "indexed": false,
          "internalType": "string",
          "name": "particulars",
          "type": "string"
        }
      ],
      "name": "UserUpdated",
      "type": "event"
    },
    {
      "anonymous": false,
      "inputs": [
        {
          "indexed": true,
          "internalType": "bytes32",
          "name": "emailHash",
          "type": "bytes32"
        },
        {
          "indexed": false,
          "internalType": "address",
          "name": "wallet",
          "type": "address"
        }
      ],
      "name": "WalletLinked",
      "type": "event"
    },
    {
      "inputs": [],
      "name": "owner",
      "outputs": [
        {
          "internalType": "address",
          "name": "",
          "type": "address"
        }
      ],
      "stateMutability": "view",
      "type": "function",
      "constant": true
    },
    {
      "inputs": [
        {
          "internalType": "bytes32",
          "name": "emailHash",
          "type": "bytes32"
        },
        {
          "internalType": "string",
          "name": "name",
          "type": "string"
        },
        {
          "internalType": "string",
          "name": "particulars",
          "type": "string"
        },
        {
          "internalType": "bytes32",
          "name": "passwordHash",
          "type": "bytes32"
        }
      ],
      "name": "register",
      "outputs": [],
      "stateMutability": "nonpayable",
      "type": "function"
    },
    {
      "inputs": [
        {
          "internalType": "bytes32",
          "name": "emailHash",
          "type": "bytes32"
        },
        {
          "internalType": "bytes32",
          "name": "passwordHash",
          "type": "bytes32"
        }
      ],
      "name": "verifyLogin",
      "outputs": [
        {
          "internalType": "bool",
          "name": "",
          "type": "bool"
        }
      ],
      "stateMutability": "view",
      "type": "function",
      "constant": true
    },
    {
      "inputs": [
        {
          "internalType": "bytes32",
          "name": "emailHash",
          "type": "bytes32"
        }
      ],
      "name": "getProfile",
      "outputs": [
        {
          "internalType": "string",
          "name": "name",
          "type": "string"
        },
        {
          "internalType": "string",
          "name": "particulars",
          "type": "string"
        },
        {
          "internalType": "address",
          "name": "wallet",
          "type": "address"
        }
      ],
      "stateMutability": "view",
      "type": "function",
      "constant": true
    },
    {
      "inputs": [
        {
          "internalType": "bytes32",
          "name": "emailHash",
          "type": "bytes32"
        },
        {
          "internalType": "address",
          "name": "wallet",
          "type": "address"
        }
      ],
      "name": "setWallet",
      "outputs": [],
      "stateMutability": "nonpayable",
      "type": "function"
    },
    {
      "inputs": [
        {
          "internalType": "bytes32",
          "name": "emailHash",
          "type": "bytes32"
        },
        {
          "internalType": "string",
          "name": "name",
          "type": "string"
        },
        {
          "internalType": "string",
          "name": "particulars",
          "type": "string"
        }
      ],
      "name": "updateProfile",
      "outputs": [],
      "stateMutability": "nonpayable",
      "type": "function"
    },
    {
      "inputs": [
        {
          "internalType": "bytes32",
          "name": "emailHash",
          "type": "bytes32"
        }
      ],
      "name": "userExists",
      "outputs": [
        {
          "internalType": "bool",
          "name": "",
          "type": "bool"
        }
      ],
      "stateMutability": "view",
      "type": "function",
      "constant": true
    }
  ],
  "bytecode": "0x608060405234801561001057600080fd5b50600080546001600160a01b03191633179055610b0a806100326000396000f3fe608060405234801561001057600080fd5b506004361061007d5760003560e01c8063b50991b41161005b578063b50991b414610104578063c5ec9cd514610126578063c860a08014610139578063e6c4f75e1461014c57600080fd5b80638da5cb5b1461008257806395cfd2aa146100b2578063a2e8452c146100c7575b600080fd5b600054610095906001600160a01b031681565b6040516001600160a01b0390911681526020015b60405180910390f35b6100c56100c0366004610677565b61015f565b005b6100f46100d53660046106b3565b600090815260016020526040902060030154600160a01b900460ff1690565b60405190151581526020016100a9565b6101176101123660046106b3565b610225565b6040516100a993929190610712565b6100c56101343660046107f3565b6103a4565b6100c5610147366004610860565b610462565b6100f461015a3660046108d5565b610643565b6000546001600160a01b031633146101925760405162461bcd60e51b8152600401610189906108f7565b60405180910390fd5b60008281526001602052604090206003810154600160a01b900460ff166101cb5760405162461bcd60e51b81526004016101899061091b565b6003810180546001600160a01b0319166001600160a01b03841690811790915560405190815283907f687d543e9b4bd5e0736eae5d76b7e5abddeebc21bb31e080a955da88288be7859060200160405180910390a2505050565b6000818152600160205260408120600381015460609283929091600160a01b900460ff166102655760405162461bcd60e51b81526004016101899061091b565b60038101548154829160018301916001600160a01b0390911690839061028a90610943565b80601f01602080910402602001604051908101604052809291908181526020018280546102b690610943565b80156103035780601f106102d857610100808354040283529160200191610303565b820191906000526020600020905b8154815290600101906020018083116102e657829003601f168201915b5050505050925081805461031690610943565b80601f016020809104026020016040519081016040528092919081815260200182805461034290610943565b801561038f5780601f106103645761010080835404028352916020019161038f565b820191906000526020600020905b81548152906001019060200180831161037257829003601f168201915b50505050509150935093509350509193909250565b6000546001600160a01b031633146103ce5760405162461bcd60e51b8152600401610189906108f7565b60008381526001602052604090206003810154600160a01b900460ff166104075760405162461bcd60e51b81526004016101899061091b565b8061041284826109cc565b506001810161042183826109cc565b50837f8107ef5f7742d1d921df85ad9707cc3eb4e17802272067947435f7fab13ef57a8484604051610454929190610a8c565b60405180910390a250505050565b6000546001600160a01b0316331461048c5760405162461bcd60e51b8152600401610189906108f7565b836104c95760405162461bcd60e51b815260206004820152600d60248201526c125b9d985b1a5908195b585a5b609a1b6044820152606401610189565b806105095760405162461bcd60e51b815260206004820152601060248201526f125b9d985b1a59081c185cdcdddbdc9960821b6044820152606401610189565b600084815260016020526040902060030154600160a01b900460ff16156105725760405162461bcd60e51b815260206004820152601860248201527f456d61696c20616c7265616479207265676973746572656400000000000000006044820152606401610189565b6040805160a081018252848152602080820185905281830184905260006060830181905260016080840181905288825290915291909120815181906105b790826109cc565b50602082015160018201906105cc90826109cc565b5060408281015160028301556060830151600390920180546080909401511515600160a01b026001600160a81b03199094166001600160a01b03909316929092179290921790555184907f9a6e3b660752f587b5cf06684c23374cf4351f4428f990b16785904a9e449e2e90610454908690610aba565b60008281526001602052604081206003810154600160a01b900460ff16801561066f5750828160020154145b949350505050565b6000806040838503121561068a57600080fd5b8235915060208301356001600160a01b03811681146106a857600080fd5b809150509250929050565b6000602082840312156106c557600080fd5b5035919050565b6000815180845260005b818110156106f2576020818501810151868301820152016106d6565b506000602082860101526020601f19601f83011685010191505092915050565b60608152600061072560608301866106cc565b828103602084015261073781866106cc565b91505060018060a01b0383166040830152949350505050565b634e487b7160e01b600052604160045260246000fd5b600082601f83011261077757600080fd5b813567ffffffffffffffff8082111561079257610792610750565b604051601f8301601f19908116603f011681019082821181831017156107ba576107ba610750565b816040528381528660208588010111156107d357600080fd5b836020870160208301376000602085830101528094505050505092915050565b60008060006060848603121561080857600080fd5b83359250602084013567ffffffffffffffff8082111561082757600080fd5b61083387838801610766565b9350604086013591508082111561084957600080fd5b5061085686828701610766565b9150509250925092565b6000806000806080858703121561087657600080fd5b84359350602085013567ffffffffffffffff8082111561089557600080fd5b6108a188838901610766565b945060408701359150808211156108b757600080fd5b506108c487828801610766565b949793965093946060013593505050565b600080604083850312156108e857600080fd5b50508035926020909101359150565b6020808252600a908201526927b7363c9037bbb732b960b11b604082015260600190565b6020808252600e908201526d155cd95c881b9bdd08199bdd5b9960921b604082015260600190565b600181811c9082168061095757607f821691505b60208210810361097757634e487b7160e01b600052602260045260246000fd5b50919050565b601f8211156109c757600081815260208120601f850160051c810160208610156109a45750805b601f850160051c820191505b818110156109c3578281556001016109b0565b5050505b505050565b815167ffffffffffffffff8111156109e6576109e6610750565b6109fa816109f48454610943565b8461097d565b602080601f831160018114610a2f5760008415610a175750858301515b600019600386901b1c1916600185901b1785556109c3565b600085815260208120601f198616915b82811015610a5e57888601518255948401946001909101908401610a3f565b5085821015610a7c5787850151600019600388901b60f8161c191681555b5050505050600190811b01905550565b604081526000610a9f60408301856106cc565b8281036020840152610ab181856106cc565b95945050505050565b602081526000610acd60208301846106cc565b939250505056fea2646970667358221220f5ad2a6fbff1dd102f92509988ae150590598be58e0dc60acb826df1807a125664736f6c63430008130033",
  "immutableReferences": {},
  "source": "// SPDX-License-Identifier: MIT\npragma solidity ^0.8.19;\n\ncontract UserRegistry {\n    struct User {\n        string name;\n        string particulars;\n        bytes32 passwordHash;\n        address wallet;\n        bool exists;\n    }\n\n    address public owner;\n    mapping(bytes32 => User) private users;\n\n    event UserRegistered(bytes32 indexed emailHash, string name);\n    event UserUpdated(bytes32 indexed emailHash, string name, string particulars);\n    event WalletLinked(bytes32 indexed emailHash, address wallet);\n\n    modifier onlyOwner() {\n        require(msg.sender == owner, \"Only owner\");\n        _;\n    }\n\n    constructor() {\n        owner = msg.sender;\n    }\n\n    function register(\n        bytes32 emailHash,\n        string memory name,\n        string memory particulars,\n        bytes32 passwordHash\n    ) external onlyOwner {\n        require(emailHash != bytes32(0), \"Invalid email\");\n        require(passwordHash != bytes32(0), \"Invalid password\");\n        require(!users[emailHash].exists, \"Email already registered\");\n        users[emailHash] = User({\n            name: name,\n            particulars: particulars,\n            passwordHash: passwordHash,\n            wallet: address(0),\n            exists: true\n        });\n        emit UserRegistered(emailHash, name);\n    }\n\n    function verifyLogin(bytes32 emailHash, bytes32 passwordHash) external view returns (bool) {\n        User storage user = users[emailHash];\n        return user.exists && user.passwordHash == passwordHash;\n    }\n\n    function getProfile(bytes32 emailHash)\n        external\n        view\n        returns (string memory name, string memory particulars, address wallet)\n    {\n        User storage user = users[emailHash];\n        require(user.exists, \"User not found\");\n        return (user.name, user.particulars, user.wallet);\n    }\n\n    function setWallet(bytes32 emailHash, address wallet) external onlyOwner {\n        User storage user = users[emailHash];\n        require(user.exists, \"User not found\");\n        user.wallet = wallet;\n        emit WalletLinked(emailHash, wallet);\n    }\n\n    function updateProfile(bytes32 emailHash, string memory name, string memory particulars) external onlyOwner {\n        User storage user = users[emailHash];\n        require(user.exists, \"User not found\");\n        user.name = name;\n        user.particulars = particulars;\n        emit UserUpdated(emailHash, name, particulars);\n    }\n\n    function userExists(bytes32 emailHash) external view returns (bool) {\n        return users[emailHash].exists;\n    }\n}\n",
  "sourcePath": "C:\\Users\\24026513\\OneDrive - Republic Polytechnic\\Y2\\Sem 2\\C373\\FA 373 final code\\C373-FA-2.0\\DAppCommerce\\contracts\\UserRegistry.sol",
  "compiler": {
    "name": "solc",
    "version": "0.8.19+commit.7dd6d404.Emscripten.clang"
  },
  "schemaVersion": "3.4.16",
  "updatedAt": "2026-01-30T07:54:21.703Z",
  "networkType": "ethereum",
  "devdoc": {
    "kind": "dev",
    "methods": {},
    "version": 1
  },
  "userdoc": {
    "kind": "user",
    "methods": {},
    "version": 1
  }
}